{
  "contractName": "BBronze",
  "abi": [
    {
      "inputs": [],
      "name": "getColor",
      "outputs": [
        {
          "internalType": "bytes32",
          "name": "",
          "type": "bytes32"
        }
      ],
      "stateMutability": "pure",
      "type": "function"
    }
  ],
  "bytecode": "0x6080604052348015600f57600080fd5b50607f80601d6000396000f3fe6080604052348015600f57600080fd5b506004361060285760003560e01c80639a86139b14602d575b600080fd5b6542524f4e5a4560d01b60405190815260200160405180910390f3fea2646970667358221220c9ae55aa7c2a8449ada70aa494f5347f86028b8c9cf2df7fed9590629719bb7764736f6c63430008060033",
  "immutableReferences": {},
  "source": "// This program is free software: you can redistribute it and/or modify\r\n// it under the terms of the GNU General Public License as published by\r\n// the Free Software Foundation, either version 3 of the License, or\r\n// (at your option) any later version.\r\n\r\n// This program is distributed in the hope that it will be useful,\r\n// but WITHOUT ANY WARRANTY; without even the implied warranty of\r\n// MERCHANTABILITY or FITNESS FOR A PARTICULAR PURPOSE.  See the\r\n// GNU General Public License for more details.\r\n\r\n// SPDX-License-Identifier: GNU\r\n\r\n// You should have received a copy of the GNU General Public License\r\n// along with this program.  If not, see <http://www.gnu.org/licenses/>.\r\n\r\npragma solidity 0.8.6;\r\n\r\nabstract contract BColor {\r\n    function getColor() virtual\r\n        external view\r\n        returns (bytes32);\r\n}\r\n\r\ncontract BBronze is BColor {\r\n    function getColor() override\r\n        external pure\r\n        returns (bytes32) {\r\n            return bytes32(\"BRONZE\");\r\n        }\r\n}\r\n",
  "sourcePath": "C:\\wetzel\\local\\cryp-tour\\contracts\\contracts\\balancer\\BColor.sol",
  "compiler": {
    "name": "solc",
    "version": "0.8.6+commit.11564f7e.Emscripten.clang"
  },
  "schemaVersion": "3.4.3",
  "updatedAt": "2022-05-19T07:34:15.751Z",
  "devdoc": {
    "kind": "dev",
    "methods": {},
    "version": 1
  },
  "userdoc": {
    "kind": "user",
    "methods": {},
    "version": 1
  }
}