{
  "contractName": "BFactory",
  "abi": [
    {
      "inputs": [],
      "stateMutability": "nonpayable",
      "type": "constructor"
    },
    {
      "anonymous": false,
      "inputs": [
        {
          "indexed": true,
          "internalType": "address",
          "name": "caller",
          "type": "address"
        },
        {
          "indexed": true,
          "internalType": "address",
          "name": "blabs",
          "type": "address"
        }
      ],
      "name": "LOG_BLABS",
      "type": "event"
    },
    {
      "anonymous": false,
      "inputs": [
        {
          "indexed": true,
          "internalType": "address",
          "name": "caller",
          "type": "address"
        },
        {
          "indexed": true,
          "internalType": "address",
          "name": "pool",
          "type": "address"
        }
      ],
      "name": "LOG_NEW_POOL",
      "type": "event"
    },
    {
      "inputs": [],
      "name": "getColor",
      "outputs": [
        {
          "internalType": "bytes32",
          "name": "",
          "type": "bytes32"
        }
      ],
      "stateMutability": "pure",
      "type": "function",
      "constant": true
    },
    {
      "inputs": [
        {
          "internalType": "address",
          "name": "b",
          "type": "address"
        }
      ],
      "name": "isBPool",
      "outputs": [
        {
          "internalType": "bool",
          "name": "",
          "type": "bool"
        }
      ],
      "stateMutability": "view",
      "type": "function",
      "constant": true
    },
    {
      "inputs": [],
      "name": "newBPool",
      "outputs": [
        {
          "internalType": "contract BPool",
          "name": "",
          "type": "address"
        }
      ],
      "stateMutability": "nonpayable",
      "type": "function"
    },
    {
      "inputs": [],
      "name": "getBLabs",
      "outputs": [
        {
          "internalType": "address",
          "name": "",
          "type": "address"
        }
      ],
      "stateMutability": "view",
      "type": "function",
      "constant": true
    },
    {
      "inputs": [
        {
          "internalType": "address",
          "name": "b",
          "type": "address"
        }
      ],
      "name": "setBLabs",
      "outputs": [],
      "stateMutability": "nonpayable",
      "type": "function"
    },
    {
      "inputs": [
        {
          "internalType": "contract BPool",
          "name": "pool",
          "type": "address"
        }
      ],
      "name": "collect",
      "outputs": [],
      "stateMutability": "nonpayable",
      "type": "function"
    }
  ],
  "bytecode": "0x608060405234801561001057600080fd5b50600180546001600160a01b03191633179055614d31806100326000396000f3fe608060405234801561001057600080fd5b50600436106100625760003560e01c806306ec16f81461006757806336ffb1671461007c5780639a86139b1461009f578063c2bb6dc2146100b6578063c6ce34fb146100f2578063d556c5dc14610105575b600080fd5b61007a610075366004610400565b61010d565b005b6001546001600160a01b03165b604051610096919061045f565b60405180910390f35b6040516542524f4e5a4560d01b8152602001610096565b6100e26100c4366004610400565b6001600160a01b031660009081526020819052604090205460ff1690565b6040519015158152602001610096565b61007a610100366004610400565b610292565b610089610314565b6001546001600160a01b031633146101405760405162461bcd60e51b815260040161013790610473565b60405180910390fd5b6040516370a0823160e01b81526000906001600160a01b038316906370a082319061016f90309060040161045f565b60206040518083038186803b15801561018757600080fd5b505afa15801561019b573d6000803e3d6000fd5b505050506040513d601f19601f820116820180604052508101906101bf9190610446565b60015460405163a9059cbb60e01b81526001600160a01b039182166004820152602481018390529192506000919084169063a9059cbb90604401602060405180830381600087803b15801561021357600080fd5b505af1158015610227573d6000803e3d6000fd5b505050506040513d601f19601f8201168201806040525081019061024b9190610424565b90508061028d5760405162461bcd60e51b815260206004820152601060248201526f11549497d15490cc8c17d1905253115160821b6044820152606401610137565b505050565b6001546001600160a01b031633146102bc5760405162461bcd60e51b815260040161013790610473565b6040516001600160a01b0382169033907ff586fa6ee1fc42f5b727f3b214ccbd0b6d7e698c45d49ba32f224fbb8670155d90600090a3600180546001600160a01b0319166001600160a01b0392909216919091179055565b600080604051610323906103f3565b604051809103906000f08015801561033f573d6000803e3d6000fd5b506001600160a01b038116600081815260208190526040808220805460ff1916600117905551929350909133917f8ccec77b0cb63ac2cafd0f5de8cdfadab91ce656d262240ba8a6343bccc5f94591a36040516392eefe9b60e01b81526001600160a01b038216906392eefe9b906103bb90339060040161045f565b600060405180830381600087803b1580156103d557600080fd5b505af11580156103e9573d6000803e3d6000fd5b5092949350505050565b614849806104b383390190565b60006020828403121561041257600080fd5b813561041d8161049a565b9392505050565b60006020828403121561043657600080fd5b8151801515811461041d57600080fd5b60006020828403121561045857600080fd5b5051919050565b6001600160a01b0391909116815260200190565b6020808252600d908201526c4552525f4e4f545f424c41425360981b604082015260600190565b6001600160a01b03811681146104af57600080fd5b5056fe60c0604052601360808190527f43727970546f757220506f6f6c20546f6b656e0000000000000000000000000060a0908152620000409160039190620000f3565b506040805180820190915260038082526210d41560ea1b60209092019182526200006d91600491620000f3565b506005805460ff191660121790553480156200008857600080fd5b5060068054336001600160a01b031990911681179091556005805462010000600160b01b03191662010000909202919091179055620000d3620f4240670de0b6b3a764000062000199565b6007556006805460ff60a01b191690556008805460ff19169055620001f9565b8280546200010190620001bc565b90600052602060002090601f01602090048101928262000125576000855562000170565b82601f106200014057805160ff191683800117855562000170565b8280016001018555821562000170579182015b828111156200017057825182559160200191906001019062000153565b506200017e92915062000182565b5090565b5b808211156200017e576000815560010162000183565b600082620001b757634e487b7160e01b600052601260045260246000fd5b500490565b600181811c90821680620001d157607f821691505b60208210811415620001f357634e487b7160e01b600052602260045260246000fd5b50919050565b61464080620002096000396000f3fe608060405234801561001057600080fd5b506004361061030b5760003560e01c80638d4e4083116101aa578063bc694ea2116100f5578063bc694ea214610665578063be3bbd2e1461066d578063c36596a6146103ac578063c6580d1214610682578063cc77828d1461068a578063cd2ed8fb14610692578063cf5e7bd31461069a578063d4cadf68146106ad578063d73dd623146106b5578063dd62ed3e146106c8578063e4a28a521461036e578063e4e1e53814610701578063ec09302114610714578063f1b8a9b71461071c578063f8b2cb4f1461072f578063f8d6aed414610742578063fde924f71461075557600080fd5b80638d4e40831461059957806392eefe9b146105a4578063936c3477146105b75780639381cd2b146105bf578063948d8ce6146105c757806395d89b41146105da578063992e2a92146105e25780639a86139b146105ea578063a221ee49146105f9578063a9059cbb1461060c578063b02f0b731461061f578063b0e0d13614610632578063b7b800a41461063a578063ba019dab14610642578063ba9530a61461064a578063bc063e1a1461065d57600080fd5b806302c967481461031057806306fdde0314610336578063095ea7b31461034b57806309a3bbe41461036e5780631446a7ff1461037657806315e84af91461038957806318160ddd1461039c578063189d00ca146103a4578063218b5382146103ac57806323b872dd146103bb5780632f37b624146103ce5780633018205f146103fa578063313ce5671461040f57806334e19907146104245780633fdddaa21461043957806346ab38f11461044c57806349b595521461045f5780634bb278f3146104725780634f69c0d41461047a5780635c1bbaf71461048d5780635db34277146104a057806366188463146104b35780636d06dfa0146104c657806370a08231146104d957806376c7a3c7146105025780637c5e9ea41461050a5780638201aa3f1461053257806382f652ad146105455780638656b65314610558578063867378c51461056b57806389298012146105735780638c28cbe814610586575b600080fd5b61032361031e366004613ecb565b610767565b6040519081526020015b60405180910390f35b61033e6109ba565b60405161032d9190614166565b61035e610359366004613e53565b610a4c565b604051901515815260200161032d565b610323610aa7565b610323610384366004613de4565b610abd565b610323610397366004613de4565b610ba5565b600254610323565b610323610c84565b610323670de0b6b3a764000081565b61035e6103c9366004613e17565b610c9b565b61035e6103dc366004613dc9565b6001600160a01b03166000908152600a602052604090205460ff1690565b610402610dbc565b60405161032d9190614067565b60055460405160ff909116815260200161032d565b610437610432366004613f38565b610df7565b005b610437610447366004613ecb565b610f67565b61032361045a366004613ecb565b6112c5565b61043761046d366004613efe565b6114c9565b6104376115b0565b610437610488366004613f6a565b611762565b61032361049b366004614024565b611980565b6103236104ae366004613ecb565b611a38565b61035e6104c1366004613e53565b611c13565b6103236104d4366004613ecb565b611ce9565b6103236104e7366004613dc9565b6001600160a01b031660009081526020819052604090205490565b610323611ece565b61051d610518366004613e7d565b611ee3565b6040805192835260208301919091520161032d565b61051d610540366004613e7d565b6121ed565b610323610553366004614024565b6124dd565b610323610566366004614024565b61259c565b610323612638565b610323610581366004614024565b61264f565b610437610594366004613dc9565b6126ff565b60085460ff1661035e565b6104376105b2366004613dc9565b61284e565b610323612918565b61032361294a565b6103236105d5366004613dc9565b61295d565b61033e6129e3565b6103236129f2565b6542524f4e5a4560d01b610323565b610323610607366004613fe9565b612a10565b61035e61061a366004613e53565b612a75565b61043761062d366004613f6a565b612a8b565b610323600881565b610323600281565b610323600181565b610323610658366004614024565b612cf6565b610323612d77565b610323612d8a565b610675612da9565b60405161032d919061407b565b610323600081565b610675612e55565b600954610323565b6104376106a8366004613dc9565b612e80565b610323613164565b61035e6106c3366004613e53565b613196565b6103236106d6366004613de4565b6001600160a01b03918216600090815260016020908152604080832093909416825291909152205490565b61043761070f366004613ecb565b613209565b6103236133dd565b61032361072a366004613dc9565b6133f0565b61032361073d366004613dc9565b613484565b610323610750366004614024565b613506565b600654600160a01b900460ff1661035e565b60405160009033906001600160e01b0319833516906107899084903690614137565b60405180910390a2600554610100900460ff16156107c25760405162461bcd60e51b81526004016107b990614309565b60405180910390fd5b6005805461ff00191661010017905560085460ff166107f35760405162461bcd60e51b81526004016107b9906143ad565b6001600160a01b0384166000908152600a602052604090205460ff1661082b5760405162461bcd60e51b81526004016107b990614359565b6001600160a01b0384166000908152600a6020526040902060039081015461086f9161085f90670de0b6b3a7640000614470565b61086a906001614458565b613589565b83111561088e5760405162461bcd60e51b81526004016107b99061432e565b6001600160a01b0384166000908152600a6020526040902060038101546002808301549054600b546007546108c8949392919089906124dd565b9150816108e75760405162461bcd60e51b81526004016107b990614211565b828211156109075760405162461bcd60e51b81526004016107b9906142e3565b610915816003015485613628565b600382015560006109268382613589565b9050856001600160a01b0316336001600160a01b03166000805160206145cb8339815191528760405161095b91815260200190565b60405180910390a361096d3384613685565b61097f61097a8483613628565b613693565b60055461099b906201000090046001600160a01b03168261369f565b6109a68633876136a9565b50506005805461ff00191690559392505050565b6060600380546109c9906144ba565b80601f01602080910402602001604051908101604052809291908181526020018280546109f5906144ba565b8015610a425780601f10610a1757610100808354040283529160200191610a42565b820191906000526020600020905b815481529060010190602001808311610a2557829003601f168201915b5050505050905090565b3360008181526001602090815260408083206001600160a01b038716808552925280832085905551919290916000805160206145eb83398151915290610a959086815260200190565b60405180910390a35060015b92915050565b610aba670de0b6b3a76400006032614484565b81565b600554600090610100900460ff1615610ae85760405162461bcd60e51b81526004016107b990614309565b6001600160a01b0383166000908152600a602052604090205460ff16610b205760405162461bcd60e51b81526004016107b990614359565b6001600160a01b0382166000908152600a602052604090205460ff16610b585760405162461bcd60e51b81526004016107b990614359565b6001600160a01b038084166000908152600a60205260408082209285168252812060038084015460028086015492840154908401549394610b9c9492939290612a10565b95945050505050565b600554600090610100900460ff1615610bd05760405162461bcd60e51b81526004016107b990614309565b6001600160a01b0383166000908152600a602052604090205460ff16610c085760405162461bcd60e51b81526004016107b990614359565b6001600160a01b0382166000908152600a602052604090205460ff16610c405760405162461bcd60e51b81526004016107b990614359565b6001600160a01b038084166000908152600a6020526040808220928516825290206003808301546002808501549284015490840154600754610b9c94929190612a10565b610aba6402540be400670de0b6b3a7640000614470565b6000336001600160a01b0385161480610cd757506001600160a01b03841660009081526001602090815260408083203384529091529020548211155b610d1b5760405162461bcd60e51b815260206004820152601560248201527422a9292fa12a27a5a2a72fa120a22fa1a0a62622a960591b60448201526064016107b9565b610d26848484613777565b336001600160a01b03851614610db2576001600160a01b0384166000908152600160209081526040808320338452909152902054610d649083613628565b6001600160a01b0385811660009081526001602090815260408083203380855290835292819020859055519384529186169290916000805160206145eb833981519152910160405180910390a35b5060019392505050565b600554600090610100900460ff1615610de75760405162461bcd60e51b81526004016107b990614309565b506006546001600160a01b031690565b336001600160a01b03166000356001600160e01b0319166001600160e01b031916600036604051610e29929190614137565b60405180910390a2600554610100900460ff1615610e595760405162461bcd60e51b81526004016107b990614309565b6005805461ff00191661010017905560085460ff1615610e8b5760405162461bcd60e51b81526004016107b99061423a565b6006546001600160a01b03163314610eb55760405162461bcd60e51b81526004016107b9906141bb565b610eca620f4240670de0b6b3a7640000614470565b811015610f075760405162461bcd60e51b815260206004820152600b60248201526a4552525f4d494e5f46454560a81b60448201526064016107b9565b610f1a600a670de0b6b3a7640000614470565b811115610f575760405162461bcd60e51b815260206004820152600b60248201526a4552525f4d41585f46454560a81b60448201526064016107b9565b6007556005805461ff0019169055565b336001600160a01b03166000356001600160e01b0319166001600160e01b031916600036604051610f99929190614137565b60405180910390a2600554610100900460ff1615610fc95760405162461bcd60e51b81526004016107b990614309565b6005805461ff001916610100179055600654336001600160a01b03909116146110045760405162461bcd60e51b81526004016107b9906141bb565b6001600160a01b0383166000908152600a602052604090205460ff1661103c5760405162461bcd60e51b81526004016107b990614359565b60085460ff161561105f5760405162461bcd60e51b81526004016107b99061423a565b670de0b6b3a76400008110156110a85760405162461bcd60e51b815260206004820152600e60248201526d11549497d3525397d5d15251d21560921b60448201526064016107b9565b6110bb670de0b6b3a76400006032614484565b8111156110fb5760405162461bcd60e51b815260206004820152600e60248201526d11549497d3505617d5d15251d21560921b60448201526064016107b9565b61111264e8d4a51000670de0b6b3a7640000614470565b8210156111535760405162461bcd60e51b815260206004820152600f60248201526e4552525f4d494e5f42414c414e434560881b60448201526064016107b9565b6001600160a01b0383166000908152600a6020526040902060020154808211156111ef5761118c600b546111878484613628565b613848565b600b556111a2670de0b6b3a76400006032614484565b600b5411156111ea5760405162461bcd60e51b815260206004820152601460248201527311549497d3505617d513d5105317d5d15251d21560621b60448201526064016107b9565b611210565b808210156112105761120c600b546112078385613628565b613628565b600b555b6001600160a01b0384166000908152600a60205260409020600281018390556003018054908490558084111561125957611254853361124f8785613628565b61389a565b6112b3565b808410156112b357600061126d8286613628565b9050600061127c826000613589565b9050611292873361128d8585613628565b6136a9565b6005546112b09088906201000090046001600160a01b0316836136a9565b50505b50506005805461ff0019169055505050565b60405160009033906001600160e01b0319833516906112e79084903690614137565b60405180910390a2600554610100900460ff16156113175760405162461bcd60e51b81526004016107b990614309565b6005805461ff00191661010017905560085460ff166113485760405162461bcd60e51b81526004016107b9906143ad565b6001600160a01b0384166000908152600a602052604090205460ff166113805760405162461bcd60e51b81526004016107b990614359565b6001600160a01b0384166000908152600a6020526040902060038101546002808301549054600b546007546113ba9493929190899061264f565b9150828210156113dc5760405162461bcd60e51b81526004016107b990614264565b6001600160a01b0385166000908152600a602052604090206003908101546114109161085f90670de0b6b3a7640000614470565b82111561142f5760405162461bcd60e51b81526004016107b99061432e565b61143d816003015483613628565b6003820155600061144e8582613589565b9050856001600160a01b0316336001600160a01b03166000805160206145cb8339815191528560405161148391815260200190565b60405180910390a36114953386613685565b6114a261097a8683613628565b6005546114be906201000090046001600160a01b03168261369f565b6109a68633856136a9565b336001600160a01b03166000356001600160e01b0319166001600160e01b0319166000366040516114fb929190614137565b60405180910390a2600554610100900460ff161561152b5760405162461bcd60e51b81526004016107b990614309565b6005805461ff00191661010017905560085460ff161561155d5760405162461bcd60e51b81526004016107b99061423a565b6006546001600160a01b031633146115875760405162461bcd60e51b81526004016107b9906141bb565b60068054911515600160a01b0260ff60a01b199092169190911790556005805461ff0019169055565b336001600160a01b03166000356001600160e01b0319166001600160e01b0319166000366040516115e2929190614137565b60405180910390a2600554610100900460ff16156116125760405162461bcd60e51b81526004016107b990614309565b6005805461ff001916610100179055600654336001600160a01b039091161461164d5760405162461bcd60e51b81526004016107b9906141bb565b60085460ff16156116705760405162461bcd60e51b81526004016107b99061423a565b600954600211156116b45760405162461bcd60e51b815260206004820152600e60248201526d4552525f4d494e5f544f4b454e5360901b60448201526064016107b9565b6008805460ff191660011790556006805460ff60a01b1916600160a01b1790556116ef6116ea670de0b6b3a76400006064614484565b6138d9565b61170b33611706670de0b6b3a76400006064614484565b61369f565b6006546040517fe5632bbf574acb6b4ab447058d6d0732fb7e9a0842fd84a5e7050f87772308b99161174d9160099130916001600160a01b03909116906140c8565b60405180910390a16005805461ff0019169055565b336001600160a01b03166000356001600160e01b0319166001600160e01b031916600036604051611794929190614137565b60405180910390a2600554610100900460ff16156117c45760405162461bcd60e51b81526004016107b990614309565b6005805461ff00191661010017905560085460ff166117f55760405162461bcd60e51b81526004016107b9906143ad565b600061180060025490565b9050600061180e85836138e2565b90508061182d5760405162461bcd60e51b81526004016107b990614211565b60005b60095481101561196c5760006009828154811061184f5761184f614566565b60009182526020808320909101546001600160a01b0316808352600a9091526040822060030154909250906118848583613589565b9050806118a35760405162461bcd60e51b81526004016107b990614211565b8787858181106118b5576118b5614566565b905060200201358111156118db5760405162461bcd60e51b81526004016107b9906142e3565b6001600160a01b0383166000908152600a60205260409020600301546119019082613848565b6001600160a01b0384166000818152600a602052604090819020600301929092559051339060008051602061458b833981519152906119439085815260200190565b60405180910390a361195683338361389a565b5050508080611964906144f5565b915050611830565b50611976856138d9565b6112b3338661369f565b60008061198d87866138e2565b9050600061199b8786613848565b905060006119a982896138e2565b905060006119bf670de0b6b3a7640000856138e2565b905060006119cd83836139b4565b905060006119db828e613589565b905060006119e9828f613628565b90506000611a08611a02670de0b6b3a76400008a613628565b8b613589565b9050611a2582611a20670de0b6b3a764000084613628565b6138e2565b9f9e505050505050505050505050505050565b60405160009033906001600160e01b031983351690611a5a9084903690614137565b60405180910390a2600554610100900460ff1615611a8a5760405162461bcd60e51b81526004016107b990614309565b6005805461ff00191661010017905560085460ff16611abb5760405162461bcd60e51b81526004016107b9906143ad565b6001600160a01b0384166000908152600a602052604090205460ff16611af35760405162461bcd60e51b81526004016107b990614359565b6001600160a01b0384166000908152600a6020526040902060030154611b269061086a6002670de0b6b3a7640000614470565b831115611b455760405162461bcd60e51b81526004016107b9906141e7565b6001600160a01b0384166000908152600a6020526040902060038101546002808301549054600b54600754611b7f9493929190899061259c565b915082821015611ba15760405162461bcd60e51b81526004016107b990614264565b611baf816003015485613848565b60038201556040518481526001600160a01b03861690339060008051602061458b8339815191529060200160405180910390a3611beb826138d9565b611bf5338361369f565b611c0085338661389a565b506005805461ff00191690559392505050565b3360009081526001602090815260408083206001600160a01b038616845290915281205480831115611c68573360009081526001602090815260408083206001600160a01b0388168452909152812055611c97565b611c728184613628565b3360009081526001602090815260408083206001600160a01b03891684529091529020555b3360008181526001602090815260408083206001600160a01b038916808552908352928190205490519081529192916000805160206145eb833981519152910160405180910390a35060019392505050565b60405160009033906001600160e01b031983351690611d0b9084903690614137565b60405180910390a2600554610100900460ff1615611d3b5760405162461bcd60e51b81526004016107b990614309565b6005805461ff00191661010017905560085460ff16611d6c5760405162461bcd60e51b81526004016107b9906143ad565b6001600160a01b0384166000908152600a602052604090205460ff16611da45760405162461bcd60e51b81526004016107b990614359565b6001600160a01b0384166000908152600a6020526040902060038101546002808301549054600b54600754611dde94939291908990611980565b915081611dfd5760405162461bcd60e51b81526004016107b990614211565b82821115611e1d5760405162461bcd60e51b81526004016107b9906142e3565b6001600160a01b0385166000908152600a6020526040902060030154611e509061086a6002670de0b6b3a7640000614470565b821115611e6f5760405162461bcd60e51b81526004016107b9906141e7565b611e7d816003015483613848565b60038201556040518281526001600160a01b03861690339060008051602061458b8339815191529060200160405180910390a3611eb9846138d9565b611ec3338561369f565b611c0085338461389a565b610aba620f4240670de0b6b3a7640000614470565b604051600090819033906001600160e01b031983351690611f079084903690614137565b60405180910390a2600554610100900460ff1615611f375760405162461bcd60e51b81526004016107b990614309565b6005805461ff0019166101001790556001600160a01b0387166000908152600a602052604090205460ff16611f7e5760405162461bcd60e51b81526004016107b990614359565b6001600160a01b0385166000908152600a602052604090205460ff16611fb65760405162461bcd60e51b81526004016107b990614359565b600654600160a01b900460ff16611fdf5760405162461bcd60e51b81526004016107b99061442b565b6001600160a01b038088166000908152600a60205260408082209288168252902060038082015461201c9161085f90670de0b6b3a7640000614470565b86111561203b5760405162461bcd60e51b81526004016107b99061432e565b600061205c8360030154846002015484600301548560020154600754612a10565b90508581111561207e5760405162461bcd60e51b81526004016107b990614380565b61209e83600301548460020154846003015485600201548b600754613506565b9450888511156120c05760405162461bcd60e51b81526004016107b9906142e3565b6120ce836003015486613848565b83600301819055506120e4826003015488613628565b600380840182905584015460028086015490850154600754612107949190612a10565b9350808410156121295760405162461bcd60e51b81526004016107b990614211565b858411156121495760405162461bcd60e51b81526004016107b990614402565b61215385886138e2565b8111156121725760405162461bcd60e51b81526004016107b990614211565b60408051868152602081018990526001600160a01b03808b1692908d169133917f908fb5ee8f16c6bc9bc3690973819f32a4d4b10188134543c88706e0e1d43378910160405180910390a46121c88a338761389a565b6121d38833896136a9565b5050506005805461ff001916905590969095509350505050565b604051600090819033906001600160e01b0319833516906122119084903690614137565b60405180910390a2600554610100900460ff16156122415760405162461bcd60e51b81526004016107b990614309565b6005805461ff0019166101001790556001600160a01b0387166000908152600a602052604090205460ff166122885760405162461bcd60e51b81526004016107b990614359565b6001600160a01b0385166000908152600a602052604090205460ff166122c05760405162461bcd60e51b81526004016107b990614359565b600654600160a01b900460ff166122e95760405162461bcd60e51b81526004016107b99061442b565b6001600160a01b038088166000908152600a60205260408082209288168252902060038201546123269061086a6002670de0b6b3a7640000614470565b8811156123455760405162461bcd60e51b81526004016107b9906141e7565b60006123668360030154846002015484600301548560020154600754612a10565b9050858111156123885760405162461bcd60e51b81526004016107b990614380565b6123a883600301548460020154846003015485600201548d600754612cf6565b9450868510156123ca5760405162461bcd60e51b81526004016107b990614264565b6123d883600301548a613848565b83600301819055506123ee826003015486613628565b600380840182905584015460028086015490850154600754612411949190612a10565b9350808410156124335760405162461bcd60e51b81526004016107b990614211565b858411156124535760405162461bcd60e51b81526004016107b990614402565b61245d89866138e2565b81111561247c5760405162461bcd60e51b81526004016107b990614211565b604080518a8152602081018790526001600160a01b03808b1692908d169133917f908fb5ee8f16c6bc9bc3690973819f32a4d4b10188134543c88706e0e1d43378910160405180910390a46124d28a338b61389a565b6121d38833876136a9565b6000806124ea87866138e2565b90506000612500670de0b6b3a764000083613628565b9050600061250e8286613589565b9050600061252887611a20670de0b6b3a764000085613628565b905060006125368c83613628565b90506000612544828e6138e2565b9050600061255282886139b4565b90506000612560828e613589565b9050600061256e8e83613628565b905061258781611a20670de0b6b3a76400006000613628565b99505050505050505050509695505050505050565b6000806125a987866138e2565b905060006125c86125c2670de0b6b3a764000084613628565b85613589565b905060006125e28661086a670de0b6b3a764000085613628565b905060006125f08b83613848565b905060006125fe828d6138e2565b9050600061260c82876139b4565b9050600061261a828d613589565b9050612626818d613628565b9e9d5050505050505050505050505050565b610aba64e8d4a51000670de0b6b3a7640000614470565b60008061265c87866138e2565b905060006126778561086a670de0b6b3a76400006000613628565b905060006126858883613628565b90506000612693828a6138e2565b905060006126b2826126ad670de0b6b3a7640000886138e2565b6139b4565b905060006126c0828e613589565b905060006126ce8e83613628565b905060006126e7611a02670de0b6b3a76400008a613628565b9050611a258261086a670de0b6b3a764000084613628565b336001600160a01b03166000356001600160e01b0319166001600160e01b031916600036604051612731929190614137565b60405180910390a2600554610100900460ff16156127615760405162461bcd60e51b81526004016107b990614309565b6005805461ff0019166101001790556001600160a01b0381166000908152600a602052604090205460ff166127a85760405162461bcd60e51b81526004016107b990614359565b6040516370a0823160e01b81526001600160a01b038216906370a08231906127d4903090600401614067565b60206040518083038186803b1580156127ec57600080fd5b505afa158015612800573d6000803e3d6000fd5b505050506040513d601f19601f820116820180604052508101906128249190613f51565b6001600160a01b039091166000908152600a60205260409020600301556005805461ff0019169055565b336001600160a01b03166000356001600160e01b0319166001600160e01b031916600036604051612880929190614137565b60405180910390a2600554610100900460ff16156128b05760405162461bcd60e51b81526004016107b990614309565b6005805461ff001916610100179055600654336001600160a01b03909116146128eb5760405162461bcd60e51b81526004016107b9906141bb565b600680546001600160a01b0319166001600160a01b03929092169190911790556005805461ff0019169055565b600554600090610100900460ff16156129435760405162461bcd60e51b81526004016107b990614309565b50600b5490565b610aba670de0b6b3a76400006064614484565b600554600090610100900460ff16156129885760405162461bcd60e51b81526004016107b990614309565b6001600160a01b0382166000908152600a602052604090205460ff166129c05760405162461bcd60e51b81526004016107b990614359565b506001600160a01b0381166000908152600a60205260409020600201545b919050565b6060600480546109c9906144ba565b612a056003670de0b6b3a7640000614470565b610aba906001614458565b600080612a1d87876138e2565b90506000612a2b86866138e2565b90506000612a3983836138e2565b90506000612a5b670de0b6b3a7640000611a20670de0b6b3a764000089613628565b9050612a678282613589565b9a9950505050505050505050565b6000612a82338484613777565b50600192915050565b336001600160a01b03166000356001600160e01b0319166001600160e01b031916600036604051612abd929190614137565b60405180910390a2600554610100900460ff1615612aed5760405162461bcd60e51b81526004016107b990614309565b6005805461ff00191661010017905560085460ff16612b1e5760405162461bcd60e51b81526004016107b9906143ad565b6000612b2960025490565b90506000612b38856000613589565b90506000612b468683613628565b90506000612b5482856138e2565b905080612b735760405162461bcd60e51b81526004016107b990614211565b612b7d3388613685565b600554612b99906201000090046001600160a01b03168461369f565b612ba282613693565b60005b600954811015612ce157600060098281548110612bc457612bc4614566565b60009182526020808320909101546001600160a01b0316808352600a909152604082206003015490925090612bf98583613589565b905080612c185760405162461bcd60e51b81526004016107b990614211565b898985818110612c2a57612c2a614566565b90506020020135811015612c505760405162461bcd60e51b81526004016107b990614264565b6001600160a01b0383166000908152600a6020526040902060030154612c769082613628565b6001600160a01b0384166000818152600a60205260409081902060030192909255905133906000805160206145cb83398151915290612cb89085815260200190565b60405180910390a3612ccb8333836136a9565b5050508080612cd9906144f5565b915050612ba5565b50506005805461ff0019169055505050505050565b600080612d0387866138e2565b90506000612d19670de0b6b3a764000085613628565b9050612d258582613589565b90506000612d378a611a208c85613848565b90506000612d4582856139b4565b90506000612d5b670de0b6b3a764000083613628565b9050612d678a82613589565b9c9b505050505050505050505050565b610aba600a670de0b6b3a7640000614470565b6001612d9f670de0b6b3a76400006002614484565b610aba91906144a3565b600554606090610100900460ff1615612dd45760405162461bcd60e51b81526004016107b990614309565b60085460ff16612df65760405162461bcd60e51b81526004016107b9906143ad565b6009805480602002602001604051908101604052809291908181526020018280548015610a4257602002820191906000526020600020905b81546001600160a01b03168152600190910190602001808311612e2e575050505050905090565b600554606090610100900460ff1615612df65760405162461bcd60e51b81526004016107b990614309565b336001600160a01b03166000356001600160e01b0319166001600160e01b031916600036604051612eb2929190614137565b60405180910390a2600554610100900460ff1615612ee25760405162461bcd60e51b81526004016107b990614309565b6005805461ff001916610100179055600654336001600160a01b0390911614612f1d5760405162461bcd60e51b81526004016107b9906141bb565b6001600160a01b0381166000908152600a602052604090205460ff16612f555760405162461bcd60e51b81526004016107b990614359565b60085460ff1615612f785760405162461bcd60e51b81526004016107b99061423a565b6001600160a01b0381166000908152600a602052604081206003015490612f9f8282613589565b600b546001600160a01b0385166000908152600a6020526040902060020154919250612fca91613628565b600b556001600160a01b0383166000908152600a60205260408120600190810154600954909291612ffa916144a3565b90506009818154811061300f5761300f614566565b600091825260209091200154600980546001600160a01b03909216918490811061303b5761303b614566565b9060005260206000200160006101000a8154816001600160a01b0302191690836001600160a01b0316021790555081600a60006009858154811061308157613081614566565b60009182526020808320909101546001600160a01b0316835282019290925260400190206001015560098054806130ba576130ba614550565b60008281526020808220600019908401810180546001600160a01b031916905590920190925560408051608081018252838152808301848152818301858152606083018681526001600160a01b038c168752600a909552929094209051815460ff19169015151781559251600184015551600283015551600390910155613146853361128d8787613628565b6005546112b39086906201000090046001600160a01b0316856136a9565b600554600090610100900460ff161561318f5760405162461bcd60e51b81526004016107b990614309565b5060075490565b3360009081526001602090815260408083206001600160a01b03861684529091528120546131c49083613848565b3360008181526001602090815260408083206001600160a01b038916808552908352928190208590555193845290926000805160206145eb8339815191529101610a95565b336001600160a01b03166000356001600160e01b0319166001600160e01b03191660003660405161323b929190614137565b60405180910390a26006546001600160a01b0316331461326d5760405162461bcd60e51b81526004016107b9906141bb565b6001600160a01b0383166000908152600a602052604090205460ff16156132c55760405162461bcd60e51b815260206004820152600c60248201526b11549497d254d7d093d5539160a21b60448201526064016107b9565b60085460ff16156132e85760405162461bcd60e51b81526004016107b99061423a565b60095460081161332b5760405162461bcd60e51b815260206004820152600e60248201526d4552525f4d41585f544f4b454e5360901b60448201526064016107b9565b6040805160808101825260018082526009805460208085019182526000858701818152606087018281526001600160a01b038c16808452600a9094529782209651875460ff1916901515178755925186860155915160028601559451600390940193909355805491820181559091527f6e1540171b6c0c960b71a7020d9f60077f6af931a8bbf590da0223dacf75c7af0180546001600160a01b03191690911790556133d8838383610f67565b505050565b610aba6002670de0b6b3a7640000614470565b600554600090610100900460ff161561341b5760405162461bcd60e51b81526004016107b990614309565b6001600160a01b0382166000908152600a602052604090205460ff166134535760405162461bcd60e51b81526004016107b990614359565b6001600160a01b0382166000908152600a6020526040902060020154600b5461347d9082906138e2565b9392505050565b600554600090610100900460ff16156134af5760405162461bcd60e51b81526004016107b990614309565b6001600160a01b0382166000908152600a602052604090205460ff166134e75760405162461bcd60e51b81526004016107b990614359565b506001600160a01b03166000908152600a602052604090206003015490565b60008061351385886138e2565b905060006135218786613628565b9050600061352f88836138e2565b9050600061353d82856139b4565b905061355181670de0b6b3a7640000613628565b9050613565670de0b6b3a764000087613628565b945061357a6135748c83613589565b866138e2565b9b9a5050505050505050505050565b6000806135968385614484565b90508315806135ad5750826135ab8583614470565b145b6135c95760405162461bcd60e51b81526004016107b9906143d8565b60006135de6002670de0b6b3a7640000614470565b6135e89083614458565b90508181101561360a5760405162461bcd60e51b81526004016107b9906143d8565b600061361e670de0b6b3a764000083614470565b9695505050505050565b60008060006136378585613ae0565b91509150801561367d5760405162461bcd60e51b81526020600482015260116024820152704552525f5355425f554e444552464c4f5760781b60448201526064016107b9565b509392505050565b61368f8282613b17565b5050565b61369c81613b22565b50565b61368f8282613bb5565b60405163a9059cbb60e01b81526001600160a01b038381166004830152602482018390526000919085169063a9059cbb906044015b602060405180830381600087803b1580156136f857600080fd5b505af115801561370c573d6000803e3d6000fd5b505050506040513d601f19601f820116820180604052508101906137309190613f1b565b9050806137715760405162461bcd60e51b815260206004820152600f60248201526e4552525f45524332305f46414c534560881b60448201526064016107b9565b50505050565b6001600160a01b0383166000908152602081905260409020548111156137af5760405162461bcd60e51b81526004016107b99061428b565b6001600160a01b0383166000908152602081905260409020546137d29082613628565b6001600160a01b0380851660009081526020819052604080822093909355908416815220546138019082613848565b6001600160a01b038381166000818152602081815260409182902094909455518481529092918616916000805160206145ab833981519152910160405180910390a3505050565b6000806138558385614458565b90508381101561347d5760405162461bcd60e51b815260206004820152601060248201526f4552525f4144445f4f564552464c4f5760801b60448201526064016107b9565b6040516323b872dd60e01b81526001600160a01b03838116600483015230602483015260448201839052600091908516906323b872dd906064016136de565b61369c81613bc0565b6000816139205760405162461bcd60e51b815260206004820152600c60248201526b4552525f4449565f5a45524f60a01b60448201526064016107b9565b6000613934670de0b6b3a764000085614484565b90508315806139535750670de0b6b3a76400006139518583614470565b145b61396f5760405162461bcd60e51b81526004016107b9906142b9565b600061397c600285614470565b6139869083614458565b9050818110156139a85760405162461bcd60e51b81526004016107b9906142b9565b600061361e8583614470565b600060018310156139ff5760405162461bcd60e51b81526020600482015260156024820152744552525f42504f575f424153455f544f4f5f4c4f5760581b60448201526064016107b9565b6001613a14670de0b6b3a76400006002614484565b613a1e91906144a3565b831115613a665760405162461bcd60e51b815260206004820152601660248201527508aa4a4be84a09eaebe8482a68abea89e9ebe90928e960531b60448201526064016107b9565b6000613a7183613c1d565b90506000613a7f8483613628565b90506000613a9586613a9085613c3b565b613c4f565b905081613aa6579250610aa1915050565b6000613ac98784613ac46402540be400670de0b6b3a7640000614470565b613cc2565b9050613ad58282613589565b979650505050505050565b600080828410613aff57613af483856144a3565b600091509150613b10565b613b0984846144a3565b6001915091505b9250929050565b61368f823083613777565b30600090815260208190526040902054811115613b515760405162461bcd60e51b81526004016107b99061428b565b30600090815260208190526040902054613b6b9082613628565b30600090815260208190526040902055600254613b889082613628565b60025560405181815260009030906000805160206145ab833981519152906020015b60405180910390a350565b61368f308383613777565b30600090815260208190526040902054613bda9082613848565b30600090815260208190526040902055600254613bf79082613848565b60025560405181815230906000906000805160206145ab83398151915290602001613baa565b6000670de0b6b3a7640000613c3183613c3b565b610aa19190614484565b6000610aa1670de0b6b3a764000083614470565b600080613c5d600284614510565b613c6f57670de0b6b3a7640000613c71565b835b9050613c7e600284614470565b92505b821561347d57613c918485613589565b9350613c9e600284614510565b15613cb057613cad8185613589565b90505b613cbb600284614470565b9250613c81565b6000828180613cd987670de0b6b3a7640000613ae0565b9092509050670de0b6b3a764000080600060015b888410613da3576000613d08670de0b6b3a764000083614484565b9050600080613d288a613d2385670de0b6b3a7640000613628565b613ae0565b91509150613d3a8761086a848c613589565b9650613d4687846138e2565b965086613d5557505050613da3565b8715613d5f579315935b8015613d69579315935b8415613d8057613d798688613628565b9550613d8d565b613d8a8688613848565b95505b5050508080613d9b906144f5565b915050613ced565b50909998505050505050505050565b80356001600160a01b03811681146129de57600080fd5b600060208284031215613ddb57600080fd5b61347d82613db2565b60008060408385031215613df757600080fd5b613e0083613db2565b9150613e0e60208401613db2565b90509250929050565b600080600060608486031215613e2c57600080fd5b613e3584613db2565b9250613e4360208501613db2565b9150604084013590509250925092565b60008060408385031215613e6657600080fd5b613e6f83613db2565b946020939093013593505050565b600080600080600060a08688031215613e9557600080fd5b613e9e86613db2565b945060208601359350613eb360408701613db2565b94979396509394606081013594506080013592915050565b600080600060608486031215613ee057600080fd5b613ee984613db2565b95602085013595506040909401359392505050565b600060208284031215613f1057600080fd5b813561347d8161457c565b600060208284031215613f2d57600080fd5b815161347d8161457c565b600060208284031215613f4a57600080fd5b5035919050565b600060208284031215613f6357600080fd5b5051919050565b600080600060408486031215613f7f57600080fd5b83359250602084013567ffffffffffffffff80821115613f9e57600080fd5b818601915086601f830112613fb257600080fd5b813581811115613fc157600080fd5b8760208260051b8501011115613fd657600080fd5b6020830194508093505050509250925092565b600080600080600060a0868803121561400157600080fd5b505083359560208501359550604085013594606081013594506080013592509050565b60008060008060008060c0878903121561403d57600080fd5b505084359660208601359650604086013595606081013595506080810135945060a0013592509050565b6001600160a01b0391909116815260200190565b6020808252825182820181905260009190848201906040850190845b818110156140bc5783516001600160a01b031683529284019291840191600101614097565b50909695505050505050565b6000606082016060835280865480835260808501915087600052602092508260002060005b828110156141125781546001600160a01b0316845292840192600191820191016140ed565b5050506001600160a01b03958616918401919091529290931660409091015292915050565b60208152816020820152818360408301376000818301604090810191909152601f909201601f19160101919050565b600060208083528351808285015260005b8181101561419357858101830151858201604001528201614177565b818111156141a5576000604083870101525b50601f01601f1916929092016040019392505050565b60208082526012908201527122a9292fa727aa2fa1a7a72a2927a62622a960711b604082015260600190565b60208082526010908201526f4552525f4d41585f494e5f524154494f60801b604082015260600190565b6020808252600f908201526e08aa4a4be9a82a890be82a0a0a49eb608b1b604082015260600190565b60208082526010908201526f11549497d254d7d1925390531256915160821b604082015260600190565b6020808252600d908201526c11549497d31253525517d3d555609a1b604082015260600190565b60208082526014908201527311549497d25394d551919250d251539517d0905360621b604082015260600190565b60208082526010908201526f11549497d1125597d25395115493905360821b604082015260600190565b6020808252600c908201526b22a9292fa624a6a4aa2fa4a760a11b604082015260600190565b6020808252600b908201526a4552525f5245454e54525960a81b604082015260600190565b6020808252601190820152704552525f4d41585f4f55545f524154494f60781b604082015260600190565b6020808252600d908201526c11549497d393d517d093d55391609a1b604082015260600190565b6020808252601390820152724552525f4241445f4c494d49545f505249434560681b604082015260600190565b60208082526011908201527011549497d393d517d19253905312569151607a1b604082015260600190565b60208082526010908201526f4552525f4d554c5f4f564552464c4f5760801b604082015260600190565b6020808252600f908201526e4552525f4c494d49545f505249434560881b604082015260600190565b6020808252601390820152724552525f535741505f4e4f545f5055424c494360681b604082015260600190565b6000821982111561446b5761446b614524565b500190565b60008261447f5761447f61453a565b500490565b600081600019048311821515161561449e5761449e614524565b500290565b6000828210156144b5576144b5614524565b500390565b600181811c908216806144ce57607f821691505b602082108114156144ef57634e487b7160e01b600052602260045260246000fd5b50919050565b600060001982141561450957614509614524565b5060010190565b60008261451f5761451f61453a565b500690565b634e487b7160e01b600052601160045260246000fd5b634e487b7160e01b600052601260045260246000fd5b634e487b7160e01b600052603160045260246000fd5b634e487b7160e01b600052603260045260246000fd5b801515811461369c57600080fdfe63982df10efd8dfaaaa0fcc7f50b2d93b7cba26ccc48adee2873220d485dc39addf252ad1be2c89b69c2b068fc378daa952ba7f163c4a11628f55a4df523b3efe74c91552b64c2e2e7bd255639e004e693bd3e1d01cc33e65610b86afcc1ffed8c5be1e5ebec7d5bd14f71427d1e84f3dd0314c0f7b2291e5b200ac8c7c3b925a26469706673582212205f3b57ac9390586eb47af950467b16bba0d15a8b6975a36c8e613e929a2ebdc664736f6c63430008060033a264697066735822122033650e229aa91d6942fac19e5f74ab156da90c9f05f0edcb0772ed9493ee64dd64736f6c63430008060033",
  "immutableReferences": {},
  "source": "// This program is free software: you can redistribute it and/or modify\r\n// it under the terms of the GNU General Public License as published by\r\n// the Free Software Foundation, either version 3 of the License, or\r\n// (at your option) any later version.\r\n\r\n// This program is disstributed in the hope that it will be useful,\r\n// but WITHOUT ANY WARRANTY; without even the implied warranty of\r\n// MERCHANTABILITY or FITNESS FOR A PARTICULAR PURPOSE.  See the\r\n// GNU General Public License for more details.\r\n\r\n// SPDX-License-Identifier: GNU\r\n\r\n// You should have received a copy of the GNU General Public License\r\n// along with this program.  If not, see <http://www.gnu.org/licenses/>.\r\n\r\npragma solidity 0.8.6;\r\n\r\n// Builds new BPools, logging their addresses and providing `isBPool(address) -> (bool)`\r\n\r\nimport \"./BPool.sol\";\r\n\r\ncontract BFactory is BBronze {\r\n    event LOG_NEW_POOL(\r\n        address indexed caller,\r\n        address indexed pool\r\n    );\r\n\r\n    event LOG_BLABS(\r\n        address indexed caller,\r\n        address indexed blabs\r\n    );\r\n\r\n    mapping(address=>bool) private _isBPool;\r\n\r\n    function isBPool(address b)\r\n        external view returns (bool)\r\n    {\r\n        return _isBPool[b];\r\n    }\r\n\r\n    function newBPool()\r\n        external\r\n        returns (BPool)\r\n    {\r\n        BPool bpool = new BPool();\r\n        _isBPool[address(bpool)] = true;\r\n        emit LOG_NEW_POOL(msg.sender, address(bpool));\r\n        bpool.setController(msg.sender);\r\n        return bpool;\r\n    }\r\n\r\n    address private _blabs;\r\n\r\n    constructor() {\r\n        _blabs = msg.sender;\r\n    }\r\n\r\n    function getBLabs()\r\n        external view\r\n        returns (address)\r\n    {\r\n        return _blabs;\r\n    }\r\n\r\n    function setBLabs(address b)\r\n        external\r\n    {\r\n        require(msg.sender == _blabs, \"ERR_NOT_BLABS\");\r\n        emit LOG_BLABS(msg.sender, b);\r\n        _blabs = b;\r\n    }\r\n\r\n    function collect(BPool pool)\r\n        external \r\n    {\r\n        require(msg.sender == _blabs, \"ERR_NOT_BLABS\");\r\n        uint collected = IERC20(pool).balanceOf(address(this));\r\n        bool xfer = pool.transfer(_blabs, collected);\r\n        require(xfer, \"ERR_ERC20_FAILED\");\r\n    }\r\n}\r\n",
  "sourcePath": "C:\\wetzel\\local\\cryp-tour\\contracts\\contracts\\balancer\\BFactory.sol",
  "compiler": {
    "name": "solc",
    "version": "0.8.6+commit.11564f7e.Emscripten.clang"
  },
  "schemaVersion": "3.4.3",
  "updatedAt": "2022-05-19T07:34:57.769Z",
  "networkType": "ethereum",
  "devdoc": {
    "kind": "dev",
    "methods": {},
    "version": 1
  },
  "userdoc": {
    "kind": "user",
    "methods": {},
    "version": 1
  }
}