{
  "contractName": "BMath",
  "abi": [
    {
      "inputs": [],
      "name": "BONE",
      "outputs": [
        {
          "internalType": "uint256",
          "name": "",
          "type": "uint256"
        }
      ],
      "stateMutability": "view",
      "type": "function"
    },
    {
      "inputs": [],
      "name": "BPOW_PRECISION",
      "outputs": [
        {
          "internalType": "uint256",
          "name": "",
          "type": "uint256"
        }
      ],
      "stateMutability": "view",
      "type": "function"
    },
    {
      "inputs": [],
      "name": "EXIT_FEE",
      "outputs": [
        {
          "internalType": "uint256",
          "name": "",
          "type": "uint256"
        }
      ],
      "stateMutability": "view",
      "type": "function"
    },
    {
      "inputs": [],
      "name": "INIT_POOL_SUPPLY",
      "outputs": [
        {
          "internalType": "uint256",
          "name": "",
          "type": "uint256"
        }
      ],
      "stateMutability": "view",
      "type": "function"
    },
    {
      "inputs": [],
      "name": "MAX_BOUND_TOKENS",
      "outputs": [
        {
          "internalType": "uint256",
          "name": "",
          "type": "uint256"
        }
      ],
      "stateMutability": "view",
      "type": "function"
    },
    {
      "inputs": [],
      "name": "MAX_BPOW_BASE",
      "outputs": [
        {
          "internalType": "uint256",
          "name": "",
          "type": "uint256"
        }
      ],
      "stateMutability": "view",
      "type": "function"
    },
    {
      "inputs": [],
      "name": "MAX_FEE",
      "outputs": [
        {
          "internalType": "uint256",
          "name": "",
          "type": "uint256"
        }
      ],
      "stateMutability": "view",
      "type": "function"
    },
    {
      "inputs": [],
      "name": "MAX_IN_RATIO",
      "outputs": [
        {
          "internalType": "uint256",
          "name": "",
          "type": "uint256"
        }
      ],
      "stateMutability": "view",
      "type": "function"
    },
    {
      "inputs": [],
      "name": "MAX_OUT_RATIO",
      "outputs": [
        {
          "internalType": "uint256",
          "name": "",
          "type": "uint256"
        }
      ],
      "stateMutability": "view",
      "type": "function"
    },
    {
      "inputs": [],
      "name": "MAX_TOTAL_WEIGHT",
      "outputs": [
        {
          "internalType": "uint256",
          "name": "",
          "type": "uint256"
        }
      ],
      "stateMutability": "view",
      "type": "function"
    },
    {
      "inputs": [],
      "name": "MAX_WEIGHT",
      "outputs": [
        {
          "internalType": "uint256",
          "name": "",
          "type": "uint256"
        }
      ],
      "stateMutability": "view",
      "type": "function"
    },
    {
      "inputs": [],
      "name": "MIN_BALANCE",
      "outputs": [
        {
          "internalType": "uint256",
          "name": "",
          "type": "uint256"
        }
      ],
      "stateMutability": "view",
      "type": "function"
    },
    {
      "inputs": [],
      "name": "MIN_BOUND_TOKENS",
      "outputs": [
        {
          "internalType": "uint256",
          "name": "",
          "type": "uint256"
        }
      ],
      "stateMutability": "view",
      "type": "function"
    },
    {
      "inputs": [],
      "name": "MIN_BPOW_BASE",
      "outputs": [
        {
          "internalType": "uint256",
          "name": "",
          "type": "uint256"
        }
      ],
      "stateMutability": "view",
      "type": "function"
    },
    {
      "inputs": [],
      "name": "MIN_FEE",
      "outputs": [
        {
          "internalType": "uint256",
          "name": "",
          "type": "uint256"
        }
      ],
      "stateMutability": "view",
      "type": "function"
    },
    {
      "inputs": [],
      "name": "MIN_WEIGHT",
      "outputs": [
        {
          "internalType": "uint256",
          "name": "",
          "type": "uint256"
        }
      ],
      "stateMutability": "view",
      "type": "function"
    },
    {
      "inputs": [],
      "name": "getColor",
      "outputs": [
        {
          "internalType": "bytes32",
          "name": "",
          "type": "bytes32"
        }
      ],
      "stateMutability": "pure",
      "type": "function"
    },
    {
      "inputs": [
        {
          "internalType": "uint256",
          "name": "tokenBalanceIn",
          "type": "uint256"
        },
        {
          "internalType": "uint256",
          "name": "tokenWeightIn",
          "type": "uint256"
        },
        {
          "internalType": "uint256",
          "name": "tokenBalanceOut",
          "type": "uint256"
        },
        {
          "internalType": "uint256",
          "name": "tokenWeightOut",
          "type": "uint256"
        },
        {
          "internalType": "uint256",
          "name": "swapFee",
          "type": "uint256"
        }
      ],
      "name": "calcSpotPrice",
      "outputs": [
        {
          "internalType": "uint256",
          "name": "spotPrice",
          "type": "uint256"
        }
      ],
      "stateMutability": "pure",
      "type": "function"
    },
    {
      "inputs": [
        {
          "internalType": "uint256",
          "name": "tokenBalanceIn",
          "type": "uint256"
        },
        {
          "internalType": "uint256",
          "name": "tokenWeightIn",
          "type": "uint256"
        },
        {
          "internalType": "uint256",
          "name": "tokenBalanceOut",
          "type": "uint256"
        },
        {
          "internalType": "uint256",
          "name": "tokenWeightOut",
          "type": "uint256"
        },
        {
          "internalType": "uint256",
          "name": "tokenAmountIn",
          "type": "uint256"
        },
        {
          "internalType": "uint256",
          "name": "swapFee",
          "type": "uint256"
        }
      ],
      "name": "calcOutGivenIn",
      "outputs": [
        {
          "internalType": "uint256",
          "name": "tokenAmountOut",
          "type": "uint256"
        }
      ],
      "stateMutability": "pure",
      "type": "function"
    },
    {
      "inputs": [
        {
          "internalType": "uint256",
          "name": "tokenBalanceIn",
          "type": "uint256"
        },
        {
          "internalType": "uint256",
          "name": "tokenWeightIn",
          "type": "uint256"
        },
        {
          "internalType": "uint256",
          "name": "tokenBalanceOut",
          "type": "uint256"
        },
        {
          "internalType": "uint256",
          "name": "tokenWeightOut",
          "type": "uint256"
        },
        {
          "internalType": "uint256",
          "name": "tokenAmountOut",
          "type": "uint256"
        },
        {
          "internalType": "uint256",
          "name": "swapFee",
          "type": "uint256"
        }
      ],
      "name": "calcInGivenOut",
      "outputs": [
        {
          "internalType": "uint256",
          "name": "tokenAmountIn",
          "type": "uint256"
        }
      ],
      "stateMutability": "pure",
      "type": "function"
    },
    {
      "inputs": [
        {
          "internalType": "uint256",
          "name": "tokenBalanceIn",
          "type": "uint256"
        },
        {
          "internalType": "uint256",
          "name": "tokenWeightIn",
          "type": "uint256"
        },
        {
          "internalType": "uint256",
          "name": "poolSupply",
          "type": "uint256"
        },
        {
          "internalType": "uint256",
          "name": "totalWeight",
          "type": "uint256"
        },
        {
          "internalType": "uint256",
          "name": "tokenAmountIn",
          "type": "uint256"
        },
        {
          "internalType": "uint256",
          "name": "swapFee",
          "type": "uint256"
        }
      ],
      "name": "calcPoolOutGivenSingleIn",
      "outputs": [
        {
          "internalType": "uint256",
          "name": "poolAmountOut",
          "type": "uint256"
        }
      ],
      "stateMutability": "pure",
      "type": "function"
    },
    {
      "inputs": [
        {
          "internalType": "uint256",
          "name": "tokenBalanceIn",
          "type": "uint256"
        },
        {
          "internalType": "uint256",
          "name": "tokenWeightIn",
          "type": "uint256"
        },
        {
          "internalType": "uint256",
          "name": "poolSupply",
          "type": "uint256"
        },
        {
          "internalType": "uint256",
          "name": "totalWeight",
          "type": "uint256"
        },
        {
          "internalType": "uint256",
          "name": "poolAmountOut",
          "type": "uint256"
        },
        {
          "internalType": "uint256",
          "name": "swapFee",
          "type": "uint256"
        }
      ],
      "name": "calcSingleInGivenPoolOut",
      "outputs": [
        {
          "internalType": "uint256",
          "name": "tokenAmountIn",
          "type": "uint256"
        }
      ],
      "stateMutability": "pure",
      "type": "function"
    },
    {
      "inputs": [
        {
          "internalType": "uint256",
          "name": "tokenBalanceOut",
          "type": "uint256"
        },
        {
          "internalType": "uint256",
          "name": "tokenWeightOut",
          "type": "uint256"
        },
        {
          "internalType": "uint256",
          "name": "poolSupply",
          "type": "uint256"
        },
        {
          "internalType": "uint256",
          "name": "totalWeight",
          "type": "uint256"
        },
        {
          "internalType": "uint256",
          "name": "poolAmountIn",
          "type": "uint256"
        },
        {
          "internalType": "uint256",
          "name": "swapFee",
          "type": "uint256"
        }
      ],
      "name": "calcSingleOutGivenPoolIn",
      "outputs": [
        {
          "internalType": "uint256",
          "name": "tokenAmountOut",
          "type": "uint256"
        }
      ],
      "stateMutability": "pure",
      "type": "function"
    },
    {
      "inputs": [
        {
          "internalType": "uint256",
          "name": "tokenBalanceOut",
          "type": "uint256"
        },
        {
          "internalType": "uint256",
          "name": "tokenWeightOut",
          "type": "uint256"
        },
        {
          "internalType": "uint256",
          "name": "poolSupply",
          "type": "uint256"
        },
        {
          "internalType": "uint256",
          "name": "totalWeight",
          "type": "uint256"
        },
        {
          "internalType": "uint256",
          "name": "tokenAmountOut",
          "type": "uint256"
        },
        {
          "internalType": "uint256",
          "name": "swapFee",
          "type": "uint256"
        }
      ],
      "name": "calcPoolInGivenSingleOut",
      "outputs": [
        {
          "internalType": "uint256",
          "name": "poolAmountIn",
          "type": "uint256"
        }
      ],
      "stateMutability": "pure",
      "type": "function"
    }
  ],
  "bytecode": "0x608060405234801561001057600080fd5b50610e35806100206000396000f3fe608060405234801561001057600080fd5b50600436106101285760003560e01c806309a3bbe41461012d578063189d00ca14610147578063218b53821461014f5780635c1bbaf71461015e57806376c7a3c71461017157806382f652ad146101795780638656b6531461018c578063867378c51461019f57806389298012146101a75780639381cd2b146101ba578063992e2a92146101c25780639a86139b146101ca578063a221ee49146101d9578063b0e0d136146101ec578063b7b800a4146101f4578063ba019dab146101fc578063ba9530a614610204578063bc063e1a14610217578063bc694ea21461021f578063c36596a61461014f578063c6580d1214610227578063e4a28a521461012d578063ec0930211461022f578063f8d6aed414610237575b600080fd5b61013561024a565b60405190815260200160405180910390f35b610135610260565b610135670de0b6b3a764000081565b61013561016c366004610cab565b610277565b61013561032f565b610135610187366004610cab565b610344565b61013561019a366004610cab565b610403565b6101356104a4565b6101356101b5366004610cab565b6104bb565b61013561056b565b61013561057e565b6542524f4e5a4560d01b610135565b6101356101e7366004610c70565b61059c565b610135600881565b610135600281565b610135600181565b610135610212366004610cab565b610601565b610135610682565b610135610695565b610135600081565b6101356106b4565b610135610245366004610cab565b6106c7565b61025d670de0b6b3a76400006032610d6e565b81565b61025d6402540be400670de0b6b3a7640000610d5a565b600080610284878661074a565b90506000610292878661082d565b905060006102a0828961074a565b905060006102b6670de0b6b3a76400008561074a565b905060006102c48383610886565b905060006102d2828e6109b2565b905060006102e0828f610a47565b905060006102ff6102f9670de0b6b3a76400008a610a47565b8b6109b2565b905061031c82610317670de0b6b3a764000084610a47565b61074a565b9f9e505050505050505050505050505050565b61025d620f4240670de0b6b3a7640000610d5a565b600080610351878661074a565b90506000610367670de0b6b3a764000083610a47565b9050600061037582866109b2565b9050600061038f87610317670de0b6b3a764000085610a47565b9050600061039d8c83610a47565b905060006103ab828e61074a565b905060006103b98288610886565b905060006103c7828e6109b2565b905060006103d58e83610a47565b90506103ee81610317670de0b6b3a76400006000610a47565b99505050505050505050509695505050505050565b600080610410878661074a565b9050600061042f610429670de0b6b3a764000084610a47565b856109b2565b9050600061044e86610449670de0b6b3a764000085610a47565b6109b2565b9050600061045c8b8361082d565b9050600061046a828d61074a565b905060006104788287610886565b90506000610486828d6109b2565b9050610492818d610a47565b9e9d5050505050505050505050505050565b61025d64e8d4a51000670de0b6b3a7640000610d5a565b6000806104c8878661074a565b905060006104e385610449670de0b6b3a76400006000610a47565b905060006104f18883610a47565b905060006104ff828a61074a565b9050600061051e82610519670de0b6b3a76400008861074a565b610886565b9050600061052c828e6109b2565b9050600061053a8e83610a47565b905060006105536102f9670de0b6b3a76400008a610a47565b905061031c82610449670de0b6b3a764000084610a47565b61025d670de0b6b3a76400006064610d6e565b6105916003670de0b6b3a7640000610d5a565b61025d906001610d42565b6000806105a9878761074a565b905060006105b7868661074a565b905060006105c5838361074a565b905060006105e7670de0b6b3a7640000610317670de0b6b3a764000089610a47565b90506105f382826109b2565b9a9950505050505050505050565b60008061060e878661074a565b90506000610624670de0b6b3a764000085610a47565b905061063085826109b2565b905060006106428a6103178c8561082d565b905060006106508285610886565b90506000610666670de0b6b3a764000083610a47565b90506106728a826109b2565b9c9b505050505050505050505050565b61025d600a670de0b6b3a7640000610d5a565b60016106aa670de0b6b3a76400006002610d6e565b61025d9190610d8d565b61025d6002670de0b6b3a7640000610d5a565b6000806106d4858861074a565b905060006106e28786610a47565b905060006106f0888361074a565b905060006106fe8285610886565b905061071281670de0b6b3a7640000610a47565b9050610726670de0b6b3a764000087610a47565b945061073b6107358c836109b2565b8661074a565b9b9a5050505050505050505050565b60008161078d5760405162461bcd60e51b815260206004820152600c60248201526b4552525f4449565f5a45524f60a01b60448201526064015b60405180910390fd5b60006107a1670de0b6b3a764000085610d6e565b90508315806107c05750670de0b6b3a76400006107be8583610d5a565b145b6107dc5760405162461bcd60e51b815260040161078490610cee565b60006107e9600285610d5a565b6107f39083610d42565b9050818110156108155760405162461bcd60e51b815260040161078490610cee565b60006108218583610d5a565b93505050505b92915050565b60008061083a8385610d42565b90508381101561087f5760405162461bcd60e51b815260206004820152601060248201526f4552525f4144445f4f564552464c4f5760801b6044820152606401610784565b9392505050565b600060018310156108d15760405162461bcd60e51b81526020600482015260156024820152744552525f42504f575f424153455f544f4f5f4c4f5760581b6044820152606401610784565b60016108e6670de0b6b3a76400006002610d6e565b6108f09190610d8d565b8311156109385760405162461bcd60e51b815260206004820152601660248201527508aa4a4be84a09eaebe8482a68abea89e9ebe90928e960531b6044820152606401610784565b600061094383610aa4565b905060006109518483610a47565b905060006109678661096285610ac2565b610ad6565b905081610978579250610827915050565b600061099b87846109966402540be400670de0b6b3a7640000610d5a565b610b49565b90506109a782826109b2565b979650505050505050565b6000806109bf8385610d6e565b90508315806109d65750826109d48583610d5a565b145b6109f25760405162461bcd60e51b815260040161078490610d18565b6000610a076002670de0b6b3a7640000610d5a565b610a119083610d42565b905081811015610a335760405162461bcd60e51b815260040161078490610d18565b6000610821670de0b6b3a764000083610d5a565b6000806000610a568585610c39565b915091508015610a9c5760405162461bcd60e51b81526020600482015260116024820152704552525f5355425f554e444552464c4f5760781b6044820152606401610784565b509392505050565b6000670de0b6b3a7640000610ab883610ac2565b6108279190610d6e565b6000610827670de0b6b3a764000083610d5a565b600080610ae4600284610dbf565b610af657670de0b6b3a7640000610af8565b835b9050610b05600284610d5a565b92505b821561087f57610b1884856109b2565b9350610b25600284610dbf565b15610b3757610b3481856109b2565b90505b610b42600284610d5a565b9250610b08565b6000828180610b6087670de0b6b3a7640000610c39565b9092509050670de0b6b3a764000080600060015b888410610c2a576000610b8f670de0b6b3a764000083610d6e565b9050600080610baf8a610baa85670de0b6b3a7640000610a47565b610c39565b91509150610bc187610449848c6109b2565b9650610bcd878461074a565b965086610bdc57505050610c2a565b8715610be6579315935b8015610bf0579315935b8415610c0757610c008688610a47565b9550610c14565b610c11868861082d565b95505b5050508080610c2290610da4565b915050610b74565b50909998505050505050505050565b600080828410610c5857610c4d8385610d8d565b600091509150610c69565b610c628484610d8d565b6001915091505b9250929050565b600080600080600060a08688031215610c8857600080fd5b505083359560208501359550604085013594606081013594506080013592509050565b60008060008060008060c08789031215610cc457600080fd5b505084359660208601359650604086013595606081013595506080810135945060a0013592509050565b60208082526010908201526f11549497d1125597d25395115493905360821b604082015260600190565b60208082526010908201526f4552525f4d554c5f4f564552464c4f5760801b604082015260600190565b60008219821115610d5557610d55610dd3565b500190565b600082610d6957610d69610de9565b500490565b6000816000190483118215151615610d8857610d88610dd3565b500290565b600082821015610d9f57610d9f610dd3565b500390565b6000600019821415610db857610db8610dd3565b5060010190565b600082610dce57610dce610de9565b500690565b634e487b7160e01b600052601160045260246000fd5b634e487b7160e01b600052601260045260246000fdfea2646970667358221220d2dfda2adc64d1089a680cd8e9d77d1252c5b9d74f113501a834dad78e0937d464736f6c63430008060033",
  "immutableReferences": {},
  "source": "// This program is free software: you can redistribute it and/or modify\r\n// it under the terms of the GNU General Public License as published by\r\n// the Free Software Foundation, either version 3 of the License, or\r\n// (at your option) any later version.\r\n\r\n// This program is distributed in the hope that it will be useful,\r\n// but WITHOUT ANY WARRANTY; without even the implied warranty of\r\n// MERCHANTABILITY or FITNESS FOR A PARTICULAR PURPOSE.  See the\r\n// GNU General Public License for more details.\r\n\r\n// SPDX-License-Identifier: GNU\r\n\r\n// You should have received a copy of the GNU General Public License\r\n// along with this program.  If not, see <http://www.gnu.org/licenses/>.\r\n\r\npragma solidity 0.8.6;\r\n\r\nimport \"./BNum.sol\";\r\n\r\ncontract BMath is BBronze, BConst, BNum {\r\n    /**********************************************************************************************\r\n    // calcSpotPrice                                                                             //\r\n    // sP = spotPrice                                                                            //\r\n    // bI = tokenBalanceIn                ( bI / wI )         1                                  //\r\n    // bO = tokenBalanceOut         sP =  -----------  *  ----------                             //\r\n    // wI = tokenWeightIn                 ( bO / wO )     ( 1 - sF )                             //\r\n    // wO = tokenWeightOut                                                                       //\r\n    // sF = swapFee                                                                              //\r\n    **********************************************************************************************/\r\n    function calcSpotPrice(\r\n        uint tokenBalanceIn,\r\n        uint tokenWeightIn,\r\n        uint tokenBalanceOut,\r\n        uint tokenWeightOut,\r\n        uint swapFee\r\n    )\r\n        public pure\r\n        returns (uint spotPrice)\r\n    {\r\n        uint numer = bdiv(tokenBalanceIn, tokenWeightIn);\r\n        uint denom = bdiv(tokenBalanceOut, tokenWeightOut);\r\n        uint ratio = bdiv(numer, denom);\r\n        uint scale = bdiv(BONE, bsub(BONE, swapFee));\r\n        return  (spotPrice = bmul(ratio, scale));\r\n    }\r\n\r\n    /**********************************************************************************************\r\n    // calcOutGivenIn                                                                            //\r\n    // aO = tokenAmountOut                                                                       //\r\n    // bO = tokenBalanceOut                                                                      //\r\n    // bI = tokenBalanceIn              /      /            bI             \\    (wI / wO) \\      //\r\n    // aI = tokenAmountIn    aO = bO * |  1 - | --------------------------  | ^            |     //\r\n    // wI = tokenWeightIn               \\      \\ ( bI + ( aI * ( 1 - sF )) /              /      //\r\n    // wO = tokenWeightOut                                                                       //\r\n    // sF = swapFee                                                                              //\r\n    **********************************************************************************************/\r\n    function calcOutGivenIn(\r\n        uint tokenBalanceIn,\r\n        uint tokenWeightIn,\r\n        uint tokenBalanceOut,\r\n        uint tokenWeightOut,\r\n        uint tokenAmountIn,\r\n        uint swapFee\r\n    )\r\n        public pure\r\n        returns (uint tokenAmountOut)\r\n    {\r\n        uint weightRatio = bdiv(tokenWeightIn, tokenWeightOut);\r\n        uint adjustedIn = bsub(BONE, swapFee);\r\n        adjustedIn = bmul(tokenAmountIn, adjustedIn);\r\n        uint y = bdiv(tokenBalanceIn, badd(tokenBalanceIn, adjustedIn));\r\n        uint foo = bpow(y, weightRatio);\r\n        uint bar = bsub(BONE, foo);\r\n        tokenAmountOut = bmul(tokenBalanceOut, bar);\r\n        return tokenAmountOut;\r\n    }\r\n\r\n    /**********************************************************************************************\r\n    // calcInGivenOut                                                                            //\r\n    // aI = tokenAmountIn                                                                        //\r\n    // bO = tokenBalanceOut               /  /     bO      \\    (wO / wI)      \\                 //\r\n    // bI = tokenBalanceIn          bI * |  | ------------  | ^            - 1  |                //\r\n    // aO = tokenAmountOut    aI =        \\  \\ ( bO - aO ) /                   /                 //\r\n    // wI = tokenWeightIn           --------------------------------------------                 //\r\n    // wO = tokenWeightOut                          ( 1 - sF )                                   //\r\n    // sF = swapFee                                                                              //\r\n    **********************************************************************************************/\r\n    function calcInGivenOut(\r\n        uint tokenBalanceIn,\r\n        uint tokenWeightIn,\r\n        uint tokenBalanceOut,\r\n        uint tokenWeightOut,\r\n        uint tokenAmountOut,\r\n        uint swapFee\r\n    )\r\n        public pure\r\n        returns (uint tokenAmountIn)\r\n    {\r\n        uint weightRatio = bdiv(tokenWeightOut, tokenWeightIn);\r\n        uint diff = bsub(tokenBalanceOut, tokenAmountOut);\r\n        uint y = bdiv(tokenBalanceOut, diff);\r\n        uint foo = bpow(y, weightRatio);\r\n        foo = bsub(foo, BONE);\r\n        tokenAmountIn = bsub(BONE, swapFee);\r\n        tokenAmountIn = bdiv(bmul(tokenBalanceIn, foo), tokenAmountIn);\r\n        return tokenAmountIn;\r\n    }\r\n\r\n    /**********************************************************************************************\r\n    // calcPoolOutGivenSingleIn                                                                  //\r\n    // pAo = poolAmountOut         /                                              \\              //\r\n    // tAi = tokenAmountIn        ///      /     //    wI \\      \\\\       \\     wI \\             //\r\n    // wI = tokenWeightIn        //| tAi *| 1 - || 1 - --  | * sF || + tBi \\    --  \\            //\r\n    // tW = totalWeight     pAo=||  \\      \\     \\\\    tW /      //         | ^ tW   | * pS - pS //\r\n    // tBi = tokenBalanceIn      \\\\  ------------------------------------- /        /            //\r\n    // pS = poolSupply            \\\\                    tBi               /        /             //\r\n    // sF = swapFee                \\                                              /              //\r\n    **********************************************************************************************/\r\n    function calcPoolOutGivenSingleIn(\r\n        uint tokenBalanceIn,\r\n        uint tokenWeightIn,\r\n        uint poolSupply,\r\n        uint totalWeight,\r\n        uint tokenAmountIn,\r\n        uint swapFee\r\n    )\r\n        public pure\r\n        returns (uint poolAmountOut)\r\n    {\r\n        // Charge the trading fee for the proportion of tokenAi\r\n        ///  which is implicitly traded to the other pool tokens.\r\n        // That proportion is (1- weightTokenIn)\r\n        // tokenAiAfterFee = tAi * (1 - (1-weightTi) * poolFee);\r\n        uint normalizedWeight = bdiv(tokenWeightIn, totalWeight);\r\n        uint zaz = bmul(bsub(BONE, normalizedWeight), swapFee); \r\n        uint tokenAmountInAfterFee = bmul(tokenAmountIn, bsub(BONE, zaz));\r\n\r\n        uint newTokenBalanceIn = badd(tokenBalanceIn, tokenAmountInAfterFee);\r\n        uint tokenInRatio = bdiv(newTokenBalanceIn, tokenBalanceIn);\r\n\r\n        // uint newPoolSupply = (ratioTi ^ weightTi) * poolSupply;\r\n        uint poolRatio = bpow(tokenInRatio, normalizedWeight);\r\n        uint newPoolSupply = bmul(poolRatio, poolSupply);\r\n        poolAmountOut = bsub(newPoolSupply, poolSupply);\r\n        return poolAmountOut;\r\n    }\r\n\r\n    /**********************************************************************************************\r\n    // calcSingleInGivenPoolOut                                                                  //\r\n    // tAi = tokenAmountIn              //(pS + pAo)\\     /    1    \\\\                           //\r\n    // pS = poolSupply                 || ---------  | ^ | --------- || * bI - bI                //\r\n    // pAo = poolAmountOut              \\\\    pS    /     \\(wI / tW)//                           //\r\n    // bI = balanceIn          tAi =  --------------------------------------------               //\r\n    // wI = weightIn                              /      wI  \\                                   //\r\n    // tW = totalWeight                          |  1 - ----  |  * sF                            //\r\n    // sF = swapFee                               \\      tW  /                                   //\r\n    **********************************************************************************************/\r\n    function calcSingleInGivenPoolOut(\r\n        uint tokenBalanceIn,\r\n        uint tokenWeightIn,\r\n        uint poolSupply,\r\n        uint totalWeight,\r\n        uint poolAmountOut,\r\n        uint swapFee\r\n    )\r\n        public pure\r\n        returns (uint tokenAmountIn)\r\n    {\r\n        uint normalizedWeight = bdiv(tokenWeightIn, totalWeight);\r\n        uint newPoolSupply = badd(poolSupply, poolAmountOut);\r\n        uint poolRatio = bdiv(newPoolSupply, poolSupply);\r\n      \r\n        //uint newBalTi = poolRatio^(1/weightTi) * balTi;\r\n        uint boo = bdiv(BONE, normalizedWeight); \r\n        uint tokenInRatio = bpow(poolRatio, boo);\r\n        uint newTokenBalanceIn = bmul(tokenInRatio, tokenBalanceIn);\r\n        uint tokenAmountInAfterFee = bsub(newTokenBalanceIn, tokenBalanceIn);\r\n        // Do reverse order of fees charged in joinswap_ExternAmountIn, this way \r\n        //     ``` pAo == joinswap_ExternAmountIn(Ti, joinswap_PoolAmountOut(pAo, Ti)) ```\r\n        //uint tAi = tAiAfterFee / (1 - (1-weightTi) * swapFee) ;\r\n        uint zar = bmul(bsub(BONE, normalizedWeight), swapFee);\r\n        tokenAmountIn = bdiv(tokenAmountInAfterFee, bsub(BONE, zar));\r\n        return tokenAmountIn;\r\n    }\r\n\r\n    /**********************************************************************************************\r\n    // calcSingleOutGivenPoolIn                                                                  //\r\n    // tAo = tokenAmountOut            /      /                                             \\\\   //\r\n    // bO = tokenBalanceOut           /      // pS - (pAi * (1 - eF)) \\     /    1    \\      \\\\  //\r\n    // pAi = poolAmountIn            | bO - || ----------------------- | ^ | --------- | * b0 || //\r\n    // ps = poolSupply                \\      \\\\          pS           /     \\(wO / tW)/      //  //\r\n    // wI = tokenWeightIn      tAo =   \\      \\                                             //   //\r\n    // tW = totalWeight                    /     /      wO \\       \\                             //\r\n    // sF = swapFee                    *  | 1 - |  1 - ---- | * sF  |                            //\r\n    // eF = exitFee                        \\     \\      tW /       /                             //\r\n    **********************************************************************************************/\r\n    function calcSingleOutGivenPoolIn(\r\n        uint tokenBalanceOut,\r\n        uint tokenWeightOut,\r\n        uint poolSupply,\r\n        uint totalWeight,\r\n        uint poolAmountIn,\r\n        uint swapFee\r\n    )\r\n        public pure\r\n        returns (uint tokenAmountOut)\r\n    {\r\n        uint normalizedWeight = bdiv(tokenWeightOut, totalWeight);\r\n        // charge exit fee on the pool token side\r\n        // pAiAfterExitFee = pAi*(1-exitFee)\r\n        uint poolAmountInAfterExitFee = bmul(poolAmountIn, bsub(BONE, EXIT_FEE));\r\n        uint newPoolSupply = bsub(poolSupply, poolAmountInAfterExitFee);\r\n        uint poolRatio = bdiv(newPoolSupply, poolSupply);\r\n     \r\n        // newBalTo = poolRatio^(1/weightTo) * balTo;\r\n        uint tokenOutRatio = bpow(poolRatio, bdiv(BONE, normalizedWeight));\r\n        uint newTokenBalanceOut = bmul(tokenOutRatio, tokenBalanceOut);\r\n\r\n        uint tokenAmountOutBeforeSwapFee = bsub(tokenBalanceOut, newTokenBalanceOut);\r\n\r\n        // charge swap fee on the output token side \r\n        //uint tAo = tAoBeforeSwapFee * (1 - (1-weightTo) * swapFee)\r\n        uint zaz = bmul(bsub(BONE, normalizedWeight), swapFee); \r\n        tokenAmountOut = bmul(tokenAmountOutBeforeSwapFee, bsub(BONE, zaz));\r\n        return tokenAmountOut;\r\n    }\r\n\r\n    /**********************************************************************************************\r\n    // calcPoolInGivenSingleOut                                                                  //\r\n    // pAi = poolAmountIn               // /               tAo             \\\\     / wO \\     \\   //\r\n    // bO = tokenBalanceOut            // | bO - -------------------------- |\\   | ---- |     \\  //\r\n    // tAo = tokenAmountOut      pS - ||   \\     1 - ((1 - (tO / tW)) * sF)/  | ^ \\ tW /  * pS | //\r\n    // ps = poolSupply                 \\\\ -----------------------------------/                /  //\r\n    // wO = tokenWeightOut  pAi =       \\\\               bO                 /                /   //\r\n    // tW = totalWeight           -------------------------------------------------------------  //\r\n    // sF = swapFee                                        ( 1 - eF )                            //\r\n    // eF = exitFee                                                                              //\r\n    **********************************************************************************************/\r\n    function calcPoolInGivenSingleOut(\r\n        uint tokenBalanceOut,\r\n        uint tokenWeightOut,\r\n        uint poolSupply,\r\n        uint totalWeight,\r\n        uint tokenAmountOut,\r\n        uint swapFee\r\n    )\r\n        public pure\r\n        returns (uint poolAmountIn)\r\n    {\r\n\r\n        // charge swap fee on the output token side \r\n        uint normalizedWeight = bdiv(tokenWeightOut, totalWeight);\r\n        //uint tAoBeforeSwapFee = tAo / (1 - (1-weightTo) * swapFee) ;\r\n        uint zoo = bsub(BONE, normalizedWeight);\r\n        uint zar = bmul(zoo, swapFee); \r\n        uint tokenAmountOutBeforeSwapFee = bdiv(tokenAmountOut, bsub(BONE, zar));\r\n\r\n        uint newTokenBalanceOut = bsub(tokenBalanceOut, tokenAmountOutBeforeSwapFee);\r\n        uint tokenOutRatio = bdiv(newTokenBalanceOut, tokenBalanceOut);\r\n\r\n        //uint newPoolSupply = (ratioTo ^ weightTo) * poolSupply;\r\n        uint poolRatio = bpow(tokenOutRatio, normalizedWeight);\r\n        uint newPoolSupply = bmul(poolRatio, poolSupply);\r\n        uint poolAmountInAfterExitFee = bsub(poolSupply, newPoolSupply);\r\n\r\n        // charge exit fee on the pool token side\r\n        // pAi = pAiAfterExitFee/(1-exitFee)\r\n        poolAmountIn = bdiv(poolAmountInAfterExitFee, bsub(BONE, EXIT_FEE));\r\n        return poolAmountIn;\r\n    }\r\n\r\n\r\n}\r\n",
  "sourcePath": "C:\\wetzel\\local\\cryp-tour\\contracts\\contracts\\balancer\\BMath.sol",
  "compiler": {
    "name": "solc",
    "version": "0.8.6+commit.11564f7e.Emscripten.clang"
  },
  "schemaVersion": "3.4.3",
  "updatedAt": "2022-05-19T07:34:15.775Z",
  "devdoc": {
    "kind": "dev",
    "methods": {},
    "version": 1
  },
  "userdoc": {
    "kind": "user",
    "methods": {},
    "version": 1
  }
}