{
  "contractName": "BNum",
  "abi": [
    {
      "inputs": [],
      "name": "BONE",
      "outputs": [
        {
          "internalType": "uint256",
          "name": "",
          "type": "uint256"
        }
      ],
      "stateMutability": "view",
      "type": "function"
    },
    {
      "inputs": [],
      "name": "BPOW_PRECISION",
      "outputs": [
        {
          "internalType": "uint256",
          "name": "",
          "type": "uint256"
        }
      ],
      "stateMutability": "view",
      "type": "function"
    },
    {
      "inputs": [],
      "name": "EXIT_FEE",
      "outputs": [
        {
          "internalType": "uint256",
          "name": "",
          "type": "uint256"
        }
      ],
      "stateMutability": "view",
      "type": "function"
    },
    {
      "inputs": [],
      "name": "INIT_POOL_SUPPLY",
      "outputs": [
        {
          "internalType": "uint256",
          "name": "",
          "type": "uint256"
        }
      ],
      "stateMutability": "view",
      "type": "function"
    },
    {
      "inputs": [],
      "name": "MAX_BOUND_TOKENS",
      "outputs": [
        {
          "internalType": "uint256",
          "name": "",
          "type": "uint256"
        }
      ],
      "stateMutability": "view",
      "type": "function"
    },
    {
      "inputs": [],
      "name": "MAX_BPOW_BASE",
      "outputs": [
        {
          "internalType": "uint256",
          "name": "",
          "type": "uint256"
        }
      ],
      "stateMutability": "view",
      "type": "function"
    },
    {
      "inputs": [],
      "name": "MAX_FEE",
      "outputs": [
        {
          "internalType": "uint256",
          "name": "",
          "type": "uint256"
        }
      ],
      "stateMutability": "view",
      "type": "function"
    },
    {
      "inputs": [],
      "name": "MAX_IN_RATIO",
      "outputs": [
        {
          "internalType": "uint256",
          "name": "",
          "type": "uint256"
        }
      ],
      "stateMutability": "view",
      "type": "function"
    },
    {
      "inputs": [],
      "name": "MAX_OUT_RATIO",
      "outputs": [
        {
          "internalType": "uint256",
          "name": "",
          "type": "uint256"
        }
      ],
      "stateMutability": "view",
      "type": "function"
    },
    {
      "inputs": [],
      "name": "MAX_TOTAL_WEIGHT",
      "outputs": [
        {
          "internalType": "uint256",
          "name": "",
          "type": "uint256"
        }
      ],
      "stateMutability": "view",
      "type": "function"
    },
    {
      "inputs": [],
      "name": "MAX_WEIGHT",
      "outputs": [
        {
          "internalType": "uint256",
          "name": "",
          "type": "uint256"
        }
      ],
      "stateMutability": "view",
      "type": "function"
    },
    {
      "inputs": [],
      "name": "MIN_BALANCE",
      "outputs": [
        {
          "internalType": "uint256",
          "name": "",
          "type": "uint256"
        }
      ],
      "stateMutability": "view",
      "type": "function"
    },
    {
      "inputs": [],
      "name": "MIN_BOUND_TOKENS",
      "outputs": [
        {
          "internalType": "uint256",
          "name": "",
          "type": "uint256"
        }
      ],
      "stateMutability": "view",
      "type": "function"
    },
    {
      "inputs": [],
      "name": "MIN_BPOW_BASE",
      "outputs": [
        {
          "internalType": "uint256",
          "name": "",
          "type": "uint256"
        }
      ],
      "stateMutability": "view",
      "type": "function"
    },
    {
      "inputs": [],
      "name": "MIN_FEE",
      "outputs": [
        {
          "internalType": "uint256",
          "name": "",
          "type": "uint256"
        }
      ],
      "stateMutability": "view",
      "type": "function"
    },
    {
      "inputs": [],
      "name": "MIN_WEIGHT",
      "outputs": [
        {
          "internalType": "uint256",
          "name": "",
          "type": "uint256"
        }
      ],
      "stateMutability": "view",
      "type": "function"
    },
    {
      "inputs": [],
      "name": "getColor",
      "outputs": [
        {
          "internalType": "bytes32",
          "name": "",
          "type": "bytes32"
        }
      ],
      "stateMutability": "pure",
      "type": "function"
    }
  ],
  "bytecode": "0x608060405234801561001057600080fd5b50610303806100206000396000f3fe608060405234801561001057600080fd5b50600436106100db5760003560e01c806309a3bbe4146100e0578063189d00ca146100fa578063218b53821461010257806376c7a3c714610111578063867378c5146101195780639381cd2b14610121578063992e2a92146101295780639a86139b14610131578063b0e0d13614610140578063b7b800a414610148578063ba019dab14610150578063bc063e1a14610158578063bc694ea214610160578063c36596a614610102578063c6580d1214610168578063e4a28a52146100e0578063ec09302114610170575b600080fd5b6100e8610178565b60405190815260200160405180910390f35b6100e861018e565b6100e8670de0b6b3a764000081565b6100e86101a5565b6100e86101ba565b6100e86101d1565b6100e86101e4565b6542524f4e5a4560d01b6100e8565b6100e8600881565b6100e8600281565b6100e8600181565b6100e8610202565b6100e8610215565b6100e8600081565b6100e8610234565b61018b670de0b6b3a76400006032610281565b81565b61018b6402540be400670de0b6b3a764000061025f565b61018b620f4240670de0b6b3a764000061025f565b61018b64e8d4a51000670de0b6b3a764000061025f565b61018b670de0b6b3a76400006064610281565b6101f76003670de0b6b3a764000061025f565b61018b906001610247565b61018b600a670de0b6b3a764000061025f565b600161022a670de0b6b3a76400006002610281565b61018b91906102a0565b61018b6002670de0b6b3a764000061025f565b6000821982111561025a5761025a6102b7565b500190565b60008261027c57634e487b7160e01b600052601260045260246000fd5b500490565b600081600019048311821515161561029b5761029b6102b7565b500290565b6000828210156102b2576102b26102b7565b500390565b634e487b7160e01b600052601160045260246000fdfea264697066735822122012ea1c12d93ffde18071a7972f1f44ed8eebe1dde771fa8bd4963d8229428df964736f6c63430008060033",
  "immutableReferences": {},
  "source": "// This program is free software: you can redistribute it and/or modify\r\n// it under the terms of the GNU General Public License as published by\r\n// the Free Software Foundation, either version 3 of the License, or\r\n// (at your option) any later version.\r\n\r\n// This program is distributed in the hope that it will be useful,\r\n// but WITHOUT ANY WARRANTY; without even the implied warranty of\r\n// MERCHANTABILITY or FITNESS FOR A PARTICULAR PURPOSE.  See the\r\n// GNU General Public License for more details.\r\n\r\n// SPDX-License-Identifier: GNU\r\n\r\n// You should have received a copy of the GNU General Public License\r\n// along with this program.  If not, see <http://www.gnu.org/licenses/>.\r\n\r\npragma solidity 0.8.6;\r\n\r\nimport \"./BConst.sol\";\r\n\r\ncontract BNum is BConst {\r\n\r\n    function btoi(uint a)\r\n        internal pure \r\n        returns (uint)\r\n    {\r\n        return a / BONE;\r\n    }\r\n\r\n    function bfloor(uint a)\r\n        internal pure\r\n        returns (uint)\r\n    {\r\n        return btoi(a) * BONE;\r\n    }\r\n\r\n    function badd(uint a, uint b)\r\n        internal pure\r\n        returns (uint)\r\n    {\r\n        uint c = a + b;\r\n        require(c >= a, \"ERR_ADD_OVERFLOW\");\r\n        return c;\r\n    }\r\n\r\n    function bsub(uint a, uint b)\r\n        internal pure\r\n        returns (uint)\r\n    {\r\n        (uint c, bool flag) = bsubSign(a, b);\r\n        require(!flag, \"ERR_SUB_UNDERFLOW\");\r\n        return c;\r\n    }\r\n\r\n    function bsubSign(uint a, uint b)\r\n        internal pure\r\n        returns (uint, bool)\r\n    {\r\n        if (a >= b) {\r\n            return (a - b, false);\r\n        } else {\r\n            return (b - a, true);\r\n        }\r\n    }\r\n\r\n    function bmul(uint a, uint b)\r\n        internal pure\r\n        returns (uint)\r\n    {\r\n        uint c0 = a * b;\r\n        require(a == 0 || c0 / a == b, \"ERR_MUL_OVERFLOW\");\r\n        uint c1 = c0 + (BONE / 2);\r\n        require(c1 >= c0, \"ERR_MUL_OVERFLOW\");\r\n        uint c2 = c1 / BONE;\r\n        return c2;\r\n    }\r\n\r\n    function bdiv(uint a, uint b)\r\n        internal pure\r\n        returns (uint)\r\n    {\r\n        require(b != 0, \"ERR_DIV_ZERO\");\r\n        uint c0 = a * BONE;\r\n        require(a == 0 || c0 / a == BONE, \"ERR_DIV_INTERNAL\"); // bmul overflow\r\n        uint c1 = c0 + (b / 2);\r\n        require(c1 >= c0, \"ERR_DIV_INTERNAL\"); //  badd require\r\n        uint c2 = c1 / b;\r\n        return c2;\r\n    }\r\n\r\n    // DSMath.wpow\r\n    function bpowi(uint a, uint n)\r\n        internal pure\r\n        returns (uint)\r\n    {\r\n        uint z = n % 2 != 0 ? a : BONE;\r\n\r\n        for (n /= 2; n != 0; n /= 2) {\r\n            a = bmul(a, a);\r\n\r\n            if (n % 2 != 0) {\r\n                z = bmul(z, a);\r\n            }\r\n        }\r\n        return z;\r\n    }\r\n\r\n    // Compute b^(e.w) by splitting it into (b^e)*(b^0.w).\r\n    // Use `bpowi` for `b^e` and `bpowK` for k iterations\r\n    // of approximation of b^0.w\r\n    function bpow(uint base, uint exp)\r\n        internal pure\r\n        returns (uint)\r\n    {\r\n        require(base >= MIN_BPOW_BASE, \"ERR_BPOW_BASE_TOO_LOW\");\r\n        require(base <= MAX_BPOW_BASE, \"ERR_BPOW_BASE_TOO_HIGH\");\r\n\r\n        uint whole  = bfloor(exp);   \r\n        uint remain = bsub(exp, whole);\r\n\r\n        uint wholePow = bpowi(base, btoi(whole));\r\n\r\n        if (remain == 0) {\r\n            return wholePow;\r\n        }\r\n\r\n        uint partialResult = bpowApprox(base, remain, BPOW_PRECISION);\r\n        return bmul(wholePow, partialResult);\r\n    }\r\n\r\n    function bpowApprox(uint base, uint exp, uint precision)\r\n        internal pure\r\n        returns (uint)\r\n    {\r\n        // term 0:\r\n        uint a     = exp;\r\n        (uint x, bool xneg)  = bsubSign(base, BONE);\r\n        uint term = BONE;\r\n        uint sum   = term;\r\n        bool negative = false;\r\n\r\n\r\n        // term(k) = numer / denom \r\n        //         = (product(a - i - 1, i=1-->k) * x^k) / (k!)\r\n        // each iteration, multiply previous term by (a-(k-1)) * x / k\r\n        // continue until term is less than precision\r\n        for (uint i = 1; term >= precision; i++) {\r\n            uint bigK = i * BONE;\r\n            (uint c, bool cneg) = bsubSign(a, bsub(bigK, BONE));\r\n            term = bmul(term, bmul(c, x));\r\n            term = bdiv(term, bigK);\r\n            if (term == 0) break;\r\n\r\n            if (xneg) negative = !negative;\r\n            if (cneg) negative = !negative;\r\n            if (negative) {\r\n                sum = bsub(sum, term);\r\n            } else {\r\n                sum = badd(sum, term);\r\n            }\r\n        }\r\n\r\n        return sum;\r\n    }\r\n\r\n}\r\n",
  "sourcePath": "C:\\wetzel\\local\\cryp-tour\\contracts\\contracts\\balancer\\BNum.sol",
  "compiler": {
    "name": "solc",
    "version": "0.8.6+commit.11564f7e.Emscripten.clang"
  },
  "schemaVersion": "3.4.3",
  "updatedAt": "2022-05-19T07:34:15.793Z",
  "devdoc": {
    "kind": "dev",
    "methods": {},
    "version": 1
  },
  "userdoc": {
    "kind": "user",
    "methods": {},
    "version": 1
  }
}