{
  "contractName": "TBPoolJoinExitNoFee",
  "abi": [
    {
      "inputs": [],
      "name": "BONE",
      "outputs": [
        {
          "internalType": "uint256",
          "name": "",
          "type": "uint256"
        }
      ],
      "stateMutability": "view",
      "type": "function"
    },
    {
      "inputs": [],
      "name": "BPOW_PRECISION",
      "outputs": [
        {
          "internalType": "uint256",
          "name": "",
          "type": "uint256"
        }
      ],
      "stateMutability": "view",
      "type": "function"
    },
    {
      "inputs": [],
      "name": "EXIT_FEE",
      "outputs": [
        {
          "internalType": "uint256",
          "name": "",
          "type": "uint256"
        }
      ],
      "stateMutability": "view",
      "type": "function"
    },
    {
      "inputs": [],
      "name": "INIT_POOL_SUPPLY",
      "outputs": [
        {
          "internalType": "uint256",
          "name": "",
          "type": "uint256"
        }
      ],
      "stateMutability": "view",
      "type": "function"
    },
    {
      "inputs": [],
      "name": "MAX_BOUND_TOKENS",
      "outputs": [
        {
          "internalType": "uint256",
          "name": "",
          "type": "uint256"
        }
      ],
      "stateMutability": "view",
      "type": "function"
    },
    {
      "inputs": [],
      "name": "MAX_BPOW_BASE",
      "outputs": [
        {
          "internalType": "uint256",
          "name": "",
          "type": "uint256"
        }
      ],
      "stateMutability": "view",
      "type": "function"
    },
    {
      "inputs": [],
      "name": "MAX_FEE",
      "outputs": [
        {
          "internalType": "uint256",
          "name": "",
          "type": "uint256"
        }
      ],
      "stateMutability": "view",
      "type": "function"
    },
    {
      "inputs": [],
      "name": "MAX_IN_RATIO",
      "outputs": [
        {
          "internalType": "uint256",
          "name": "",
          "type": "uint256"
        }
      ],
      "stateMutability": "view",
      "type": "function"
    },
    {
      "inputs": [],
      "name": "MAX_OUT_RATIO",
      "outputs": [
        {
          "internalType": "uint256",
          "name": "",
          "type": "uint256"
        }
      ],
      "stateMutability": "view",
      "type": "function"
    },
    {
      "inputs": [],
      "name": "MAX_TOTAL_WEIGHT",
      "outputs": [
        {
          "internalType": "uint256",
          "name": "",
          "type": "uint256"
        }
      ],
      "stateMutability": "view",
      "type": "function"
    },
    {
      "inputs": [],
      "name": "MAX_WEIGHT",
      "outputs": [
        {
          "internalType": "uint256",
          "name": "",
          "type": "uint256"
        }
      ],
      "stateMutability": "view",
      "type": "function"
    },
    {
      "inputs": [],
      "name": "MIN_BALANCE",
      "outputs": [
        {
          "internalType": "uint256",
          "name": "",
          "type": "uint256"
        }
      ],
      "stateMutability": "view",
      "type": "function"
    },
    {
      "inputs": [],
      "name": "MIN_BOUND_TOKENS",
      "outputs": [
        {
          "internalType": "uint256",
          "name": "",
          "type": "uint256"
        }
      ],
      "stateMutability": "view",
      "type": "function"
    },
    {
      "inputs": [],
      "name": "MIN_BPOW_BASE",
      "outputs": [
        {
          "internalType": "uint256",
          "name": "",
          "type": "uint256"
        }
      ],
      "stateMutability": "view",
      "type": "function"
    },
    {
      "inputs": [],
      "name": "MIN_FEE",
      "outputs": [
        {
          "internalType": "uint256",
          "name": "",
          "type": "uint256"
        }
      ],
      "stateMutability": "view",
      "type": "function"
    },
    {
      "inputs": [],
      "name": "MIN_WEIGHT",
      "outputs": [
        {
          "internalType": "uint256",
          "name": "",
          "type": "uint256"
        }
      ],
      "stateMutability": "view",
      "type": "function"
    },
    {
      "inputs": [],
      "name": "echidna_no_bug_found",
      "outputs": [
        {
          "internalType": "bool",
          "name": "",
          "type": "bool"
        }
      ],
      "stateMutability": "view",
      "type": "function"
    },
    {
      "inputs": [],
      "name": "getColor",
      "outputs": [
        {
          "internalType": "bytes32",
          "name": "",
          "type": "bytes32"
        }
      ],
      "stateMutability": "pure",
      "type": "function"
    },
    {
      "inputs": [
        {
          "internalType": "uint256",
          "name": "poolAmountOut",
          "type": "uint256"
        },
        {
          "internalType": "uint256",
          "name": "poolAmountIn",
          "type": "uint256"
        },
        {
          "internalType": "uint256",
          "name": "poolTotal",
          "type": "uint256"
        },
        {
          "internalType": "uint256",
          "name": "_records_t_balance",
          "type": "uint256"
        }
      ],
      "name": "joinAndExitNoFeePool",
      "outputs": [],
      "stateMutability": "nonpayable",
      "type": "function"
    }
  ],
  "bytecode": "0x60806040526000805460ff1916600117905534801561001d57600080fd5b506106de8061002d6000396000f3fe608060405234801561001057600080fd5b50600436106100f15760003560e01c806309a3bbe4146100f65780631819aa4214610111578063189d00ca1461012e578063218b53821461013657806376c7a3c714610145578063867378c51461014d5780639381cd2b14610155578063992e2a921461015d5780639a86139b14610165578063b0e0d13614610174578063b7b800a41461017c578063ba019dab14610184578063bc063e1a1461018c578063bc694ea214610194578063c36596a614610136578063c6580d121461019c578063e15c7d42146101a4578063e4a28a52146100f6578063ec093021146101b9575b600080fd5b6100fe6101c1565b6040519081526020015b60405180910390f35b60005461011e9060ff1681565b6040519015158152602001610108565b6100fe6101d7565b6100fe670de0b6b3a764000081565b6100fe6101ee565b6100fe610203565b6100fe61021a565b6100fe61022d565b6542524f4e5a4560d01b6100fe565b6100fe600881565b6100fe600281565b6100fe600181565b6100fe61024b565b6100fe61025e565b6100fe600081565b6101b76101b236600461059c565b61027d565b005b6100fe610354565b6101d4670de0b6b3a7640000603261065c565b81565b6101d46402540be400670de0b6b3a764000061063a565b6101d4620f4240670de0b6b3a764000061063a565b6101d464e8d4a51000670de0b6b3a764000061063a565b6101d4670de0b6b3a7640000606461065c565b6102406003670de0b6b3a764000061063a565b6101d4906001610622565b6101d4600a670de0b6b3a764000061063a565b6001610273670de0b6b3a7640000600261065c565b6101d4919061067b565b600061028a858484610367565b905068056bc75e2d631000008311156102a257600080fd5b670de0b6b3a76400008310156102b757600080fd5b678ac7230489e800008211156102cc57600080fd5b620f42408210156102dc57600080fd5b6102e683866103d2565b92506102f282826103d2565b91506000811161030157600080fd5b8383101561030e57600080fd5b600061031b858585610367565b90508083101561032a57600080fd5b84861161033657600080fd5b81811461034257600080fd5b50506000805460ff1916905550505050565b6101d46002670de0b6b3a764000061063a565b600080610374858561042b565b9050806103ba5760405162461bcd60e51b815260206004820152600f60248201526e08aa4a4be9a82a890be82a0a0a49eb608b1b60448201526064015b60405180910390fd5b8260006103c78383610507565b979650505050505050565b6000806103df8385610622565b9050838110156104245760405162461bcd60e51b815260206004820152601060248201526f4552525f4144445f4f564552464c4f5760801b60448201526064016103b1565b9392505050565b6000816104695760405162461bcd60e51b815260206004820152600c60248201526b4552525f4449565f5a45524f60a01b60448201526064016103b1565b600061047d670de0b6b3a76400008561065c565b905083158061049c5750670de0b6b3a764000061049a858361063a565b145b6104b85760405162461bcd60e51b81526004016103b1906105ce565b60006104c560028561063a565b6104cf9083610622565b9050818110156104f15760405162461bcd60e51b81526004016103b1906105ce565b60006104fd858361063a565b9695505050505050565b600080610514838561065c565b905083158061052b575082610529858361063a565b145b6105475760405162461bcd60e51b81526004016103b1906105f8565b600061055c6002670de0b6b3a764000061063a565b6105669083610622565b9050818110156105885760405162461bcd60e51b81526004016103b1906105f8565b60006104fd670de0b6b3a76400008361063a565b600080600080608085870312156105b257600080fd5b5050823594602084013594506040840135936060013592509050565b60208082526010908201526f11549497d1125597d25395115493905360821b604082015260600190565b60208082526010908201526f4552525f4d554c5f4f564552464c4f5760801b604082015260600190565b6000821982111561063557610635610692565b500190565b60008261065757634e487b7160e01b600052601260045260246000fd5b500490565b600081600019048311821515161561067657610676610692565b500290565b60008282101561068d5761068d610692565b500390565b634e487b7160e01b600052601160045260246000fdfea2646970667358221220d1df454c58158c5d1fe6568ff11ca16c792f6914d45f5ef24000a84e2563a2ea64736f6c63430008060033",
  "immutableReferences": {},
  "source": "// SPDX-License-Identifier: GNU\r\n\r\nimport \"../../BNum.sol\";\r\n\r\npragma solidity 0.8.6;\r\n\r\n//  This test is similar to TBPoolJoinExit but with no exit fee\r\ncontract TBPoolJoinExitNoFee is BNum {\r\n\r\n    bool public echidna_no_bug_found = true;\r\n\r\n    // joinPool models the BPool.joinPool behavior for one token\r\n    function joinPool(uint poolAmountOut, uint poolTotal, uint _records_t_balance)\r\n        internal pure returns(uint)\r\n    {\r\n        uint ratio = bdiv(poolAmountOut, poolTotal);\r\n        require(ratio != 0, \"ERR_MATH_APPROX\");\r\n\r\n        uint bal = _records_t_balance;\r\n        uint tokenAmountIn = bmul(ratio, bal);\r\n\r\n        return tokenAmountIn;\r\n    }\r\n\r\n    // exitPool models the BPool.exitPool behavior for one token where no fee is applied\r\n    function exitPoolNoFee(uint poolAmountIn, uint poolTotal, uint _records_t_balance)\r\n        internal pure returns(uint)\r\n    {\r\n        uint ratio = bdiv(poolAmountIn, poolTotal);\r\n        require(ratio != 0, \"ERR_MATH_APPROX\");\r\n\r\n        uint bal = _records_t_balance;\r\n        uint tokenAmountOut = bmul(ratio, bal);\r\n\r\n        return tokenAmountOut;\r\n    }\r\n\r\n    // This function model an attacker calling joinPool - exitPool and taking advantage of potential rounding\r\n    // issues to generate free pool token\r\n    function joinAndExitNoFeePool(uint poolAmountOut, uint poolAmountIn, uint poolTotal, uint _records_t_balance)\r\n        public \r\n    {\r\n        uint tokenAmountIn = joinPool(poolAmountOut, poolTotal, _records_t_balance);\r\n\r\n        // We constraint poolTotal and _records_t_balance\r\n        // To have \"realistic\" values\r\n        require(poolTotal <= 100 ether);\r\n        require(poolTotal >= 1 ether);\r\n        require(_records_t_balance <= 10 ether);\r\n        require(_records_t_balance >= 10**6);\r\n\r\n        poolTotal = badd(poolTotal, poolAmountOut);\r\n        _records_t_balance = badd(_records_t_balance, tokenAmountIn);\r\n\r\n        require(tokenAmountIn > 0); // prevent triggering the free token generation from joinPool \r\n\r\n        require(poolTotal >= poolAmountIn);\r\n        uint tokenAmountOut = exitPoolNoFee(poolAmountIn, poolTotal, _records_t_balance);\r\n        require(_records_t_balance >= tokenAmountOut);\r\n\r\n        // We try to generate free pool share \r\n        require(poolAmountOut > poolAmountIn); \r\n        require(tokenAmountOut == tokenAmountIn); \r\n        echidna_no_bug_found = false;\r\n    }\r\n\r\n\r\n}",
  "sourcePath": "C:\\wetzel\\local\\cryp-tour\\contracts\\contracts\\balancer\\test\\echidna\\TBPoolJoinExitPoolNoFee.sol",
  "compiler": {
    "name": "solc",
    "version": "0.8.6+commit.11564f7e.Emscripten.clang"
  },
  "schemaVersion": "3.4.3",
  "updatedAt": "2022-05-19T07:34:15.948Z",
  "devdoc": {
    "kind": "dev",
    "methods": {},
    "version": 1
  },
  "userdoc": {
    "kind": "user",
    "methods": {},
    "version": 1
  }
}