{
  "contractName": "TourTokenTemplate",
  "abi": [
    {
      "inputs": [
        {
          "internalType": "string",
          "name": "name_",
          "type": "string"
        },
        {
          "internalType": "string",
          "name": "symbol_",
          "type": "string"
        },
        {
          "internalType": "address",
          "name": "minterAddress_",
          "type": "address"
        },
        {
          "internalType": "uint256",
          "name": "cap_",
          "type": "uint256"
        },
        {
          "internalType": "string",
          "name": "tourID_",
          "type": "string"
        },
        {
          "internalType": "address",
          "name": "feeCollector_",
          "type": "address"
        }
      ],
      "stateMutability": "nonpayable",
      "type": "constructor"
    },
    {
      "anonymous": false,
      "inputs": [
        {
          "indexed": true,
          "internalType": "address",
          "name": "owner",
          "type": "address"
        },
        {
          "indexed": true,
          "internalType": "address",
          "name": "spender",
          "type": "address"
        },
        {
          "indexed": false,
          "internalType": "uint256",
          "name": "value",
          "type": "uint256"
        }
      ],
      "name": "Approval",
      "type": "event"
    },
    {
      "anonymous": false,
      "inputs": [
        {
          "indexed": false,
          "internalType": "address",
          "name": "currentMinter",
          "type": "address"
        },
        {
          "indexed": false,
          "internalType": "address",
          "name": "newMinter",
          "type": "address"
        }
      ],
      "name": "MinterApproved",
      "type": "event"
    },
    {
      "anonymous": false,
      "inputs": [
        {
          "indexed": false,
          "internalType": "address",
          "name": "currentMinter",
          "type": "address"
        },
        {
          "indexed": false,
          "internalType": "address",
          "name": "newMinter",
          "type": "address"
        }
      ],
      "name": "MinterProposed",
      "type": "event"
    },
    {
      "anonymous": false,
      "inputs": [
        {
          "indexed": false,
          "internalType": "bytes32",
          "name": "orderTxId",
          "type": "bytes32"
        },
        {
          "indexed": true,
          "internalType": "address",
          "name": "consumer",
          "type": "address"
        },
        {
          "indexed": false,
          "internalType": "uint256",
          "name": "amount",
          "type": "uint256"
        },
        {
          "indexed": false,
          "internalType": "uint256",
          "name": "serviceId",
          "type": "uint256"
        },
        {
          "indexed": true,
          "internalType": "address",
          "name": "provider",
          "type": "address"
        },
        {
          "indexed": false,
          "internalType": "uint256",
          "name": "timestamp",
          "type": "uint256"
        }
      ],
      "name": "OrderFinished",
      "type": "event"
    },
    {
      "anonymous": false,
      "inputs": [
        {
          "indexed": true,
          "internalType": "address",
          "name": "consumer",
          "type": "address"
        },
        {
          "indexed": true,
          "internalType": "address",
          "name": "payer",
          "type": "address"
        },
        {
          "indexed": false,
          "internalType": "uint256",
          "name": "amount",
          "type": "uint256"
        },
        {
          "indexed": false,
          "internalType": "uint256",
          "name": "serviceId",
          "type": "uint256"
        },
        {
          "indexed": false,
          "internalType": "uint256",
          "name": "timestamp",
          "type": "uint256"
        },
        {
          "indexed": true,
          "internalType": "address",
          "name": "mrktFeeCollector",
          "type": "address"
        },
        {
          "indexed": false,
          "internalType": "uint256",
          "name": "marketFee",
          "type": "uint256"
        }
      ],
      "name": "OrderStarted",
      "type": "event"
    },
    {
      "anonymous": false,
      "inputs": [
        {
          "indexed": true,
          "internalType": "address",
          "name": "from",
          "type": "address"
        },
        {
          "indexed": true,
          "internalType": "address",
          "name": "to",
          "type": "address"
        },
        {
          "indexed": false,
          "internalType": "uint256",
          "name": "value",
          "type": "uint256"
        }
      ],
      "name": "Transfer",
      "type": "event"
    },
    {
      "inputs": [],
      "name": "BASE",
      "outputs": [
        {
          "internalType": "uint256",
          "name": "",
          "type": "uint256"
        }
      ],
      "stateMutability": "view",
      "type": "function",
      "constant": true
    },
    {
      "inputs": [],
      "name": "BASE_COMMUNITY_FEE_PERCENTAGE",
      "outputs": [
        {
          "internalType": "uint256",
          "name": "",
          "type": "uint256"
        }
      ],
      "stateMutability": "view",
      "type": "function",
      "constant": true
    },
    {
      "inputs": [],
      "name": "BASE_MARKET_FEE_PERCENTAGE",
      "outputs": [
        {
          "internalType": "uint256",
          "name": "",
          "type": "uint256"
        }
      ],
      "stateMutability": "view",
      "type": "function",
      "constant": true
    },
    {
      "inputs": [
        {
          "internalType": "address",
          "name": "owner",
          "type": "address"
        },
        {
          "internalType": "address",
          "name": "spender",
          "type": "address"
        }
      ],
      "name": "allowance",
      "outputs": [
        {
          "internalType": "uint256",
          "name": "",
          "type": "uint256"
        }
      ],
      "stateMutability": "view",
      "type": "function",
      "constant": true
    },
    {
      "inputs": [
        {
          "internalType": "address",
          "name": "spender",
          "type": "address"
        },
        {
          "internalType": "uint256",
          "name": "amount",
          "type": "uint256"
        }
      ],
      "name": "approve",
      "outputs": [
        {
          "internalType": "bool",
          "name": "",
          "type": "bool"
        }
      ],
      "stateMutability": "nonpayable",
      "type": "function"
    },
    {
      "inputs": [
        {
          "internalType": "address",
          "name": "account",
          "type": "address"
        }
      ],
      "name": "balanceOf",
      "outputs": [
        {
          "internalType": "uint256",
          "name": "",
          "type": "uint256"
        }
      ],
      "stateMutability": "view",
      "type": "function",
      "constant": true
    },
    {
      "inputs": [],
      "name": "decimals",
      "outputs": [
        {
          "internalType": "uint8",
          "name": "",
          "type": "uint8"
        }
      ],
      "stateMutability": "view",
      "type": "function",
      "constant": true
    },
    {
      "inputs": [
        {
          "internalType": "address",
          "name": "spender",
          "type": "address"
        },
        {
          "internalType": "uint256",
          "name": "subtractedValue",
          "type": "uint256"
        }
      ],
      "name": "decreaseAllowance",
      "outputs": [
        {
          "internalType": "bool",
          "name": "",
          "type": "bool"
        }
      ],
      "stateMutability": "nonpayable",
      "type": "function"
    },
    {
      "inputs": [
        {
          "internalType": "address",
          "name": "spender",
          "type": "address"
        },
        {
          "internalType": "uint256",
          "name": "addedValue",
          "type": "uint256"
        }
      ],
      "name": "increaseAllowance",
      "outputs": [
        {
          "internalType": "bool",
          "name": "",
          "type": "bool"
        }
      ],
      "stateMutability": "nonpayable",
      "type": "function"
    },
    {
      "inputs": [],
      "name": "totalSupply",
      "outputs": [
        {
          "internalType": "uint256",
          "name": "",
          "type": "uint256"
        }
      ],
      "stateMutability": "view",
      "type": "function",
      "constant": true
    },
    {
      "inputs": [
        {
          "internalType": "address",
          "name": "recipient",
          "type": "address"
        },
        {
          "internalType": "uint256",
          "name": "amount",
          "type": "uint256"
        }
      ],
      "name": "transfer",
      "outputs": [
        {
          "internalType": "bool",
          "name": "",
          "type": "bool"
        }
      ],
      "stateMutability": "nonpayable",
      "type": "function"
    },
    {
      "inputs": [
        {
          "internalType": "address",
          "name": "sender",
          "type": "address"
        },
        {
          "internalType": "address",
          "name": "recipient",
          "type": "address"
        },
        {
          "internalType": "uint256",
          "name": "amount",
          "type": "uint256"
        }
      ],
      "name": "transferFrom",
      "outputs": [
        {
          "internalType": "bool",
          "name": "",
          "type": "bool"
        }
      ],
      "stateMutability": "nonpayable",
      "type": "function"
    },
    {
      "inputs": [],
      "name": "name",
      "outputs": [
        {
          "internalType": "string",
          "name": "",
          "type": "string"
        }
      ],
      "stateMutability": "view",
      "type": "function",
      "constant": true
    },
    {
      "inputs": [],
      "name": "symbol",
      "outputs": [
        {
          "internalType": "string",
          "name": "",
          "type": "string"
        }
      ],
      "stateMutability": "view",
      "type": "function",
      "constant": true
    },
    {
      "inputs": [
        {
          "internalType": "string",
          "name": "name_",
          "type": "string"
        },
        {
          "internalType": "string",
          "name": "symbol_",
          "type": "string"
        },
        {
          "internalType": "address",
          "name": "minterAddress_",
          "type": "address"
        },
        {
          "internalType": "uint256",
          "name": "cap_",
          "type": "uint256"
        },
        {
          "internalType": "string",
          "name": "tourID_",
          "type": "string"
        },
        {
          "internalType": "address",
          "name": "feeCollector_",
          "type": "address"
        }
      ],
      "name": "initialize",
      "outputs": [
        {
          "internalType": "bool",
          "name": "",
          "type": "bool"
        }
      ],
      "stateMutability": "nonpayable",
      "type": "function"
    },
    {
      "inputs": [
        {
          "internalType": "address",
          "name": "account",
          "type": "address"
        },
        {
          "internalType": "uint256",
          "name": "value",
          "type": "uint256"
        }
      ],
      "name": "mint",
      "outputs": [],
      "stateMutability": "nonpayable",
      "type": "function"
    },
    {
      "inputs": [
        {
          "internalType": "address",
          "name": "consumer",
          "type": "address"
        },
        {
          "internalType": "uint256",
          "name": "amount",
          "type": "uint256"
        },
        {
          "internalType": "uint256",
          "name": "serviceId",
          "type": "uint256"
        },
        {
          "internalType": "address",
          "name": "mrktFeeCollector",
          "type": "address"
        }
      ],
      "name": "startOrder",
      "outputs": [],
      "stateMutability": "nonpayable",
      "type": "function"
    },
    {
      "inputs": [
        {
          "internalType": "bytes32",
          "name": "orderTxId",
          "type": "bytes32"
        },
        {
          "internalType": "address",
          "name": "consumer",
          "type": "address"
        },
        {
          "internalType": "uint256",
          "name": "amount",
          "type": "uint256"
        },
        {
          "internalType": "uint256",
          "name": "serviceId",
          "type": "uint256"
        }
      ],
      "name": "finishOrder",
      "outputs": [],
      "stateMutability": "nonpayable",
      "type": "function"
    },
    {
      "inputs": [
        {
          "internalType": "address",
          "name": "newMinter",
          "type": "address"
        }
      ],
      "name": "proposeMinter",
      "outputs": [],
      "stateMutability": "nonpayable",
      "type": "function"
    },
    {
      "inputs": [],
      "name": "approveMinter",
      "outputs": [],
      "stateMutability": "nonpayable",
      "type": "function"
    },
    {
      "inputs": [],
      "name": "tourID",
      "outputs": [
        {
          "internalType": "string",
          "name": "",
          "type": "string"
        }
      ],
      "stateMutability": "view",
      "type": "function",
      "constant": true
    },
    {
      "inputs": [],
      "name": "cap",
      "outputs": [
        {
          "internalType": "uint256",
          "name": "",
          "type": "uint256"
        }
      ],
      "stateMutability": "view",
      "type": "function",
      "constant": true
    },
    {
      "inputs": [
        {
          "internalType": "address",
          "name": "account",
          "type": "address"
        }
      ],
      "name": "isMinter",
      "outputs": [
        {
          "internalType": "bool",
          "name": "",
          "type": "bool"
        }
      ],
      "stateMutability": "view",
      "type": "function",
      "constant": true
    },
    {
      "inputs": [],
      "name": "minter",
      "outputs": [
        {
          "internalType": "address",
          "name": "",
          "type": "address"
        }
      ],
      "stateMutability": "view",
      "type": "function",
      "constant": true
    },
    {
      "inputs": [],
      "name": "isInitialized",
      "outputs": [
        {
          "internalType": "bool",
          "name": "",
          "type": "bool"
        }
      ],
      "stateMutability": "view",
      "type": "function",
      "constant": true
    },
    {
      "inputs": [
        {
          "internalType": "uint256",
          "name": "amount",
          "type": "uint256"
        },
        {
          "internalType": "uint256",
          "name": "feePercentage",
          "type": "uint256"
        }
      ],
      "name": "calculateFee",
      "outputs": [
        {
          "internalType": "uint256",
          "name": "",
          "type": "uint256"
        }
      ],
      "stateMutability": "pure",
      "type": "function",
      "constant": true
    }
  ],
  "bytecode": "0x60806040526009805460ff60a01b191690553480156200001e57600080fd5b5060405162001be738038062001be7833981016040819052620000419162000446565b8551869086906200005a906003906020850190620002cc565b50805162000070906004906020840190620002cc565b505050620000898686868686866200009660201b60201c565b5050505050505062000558565b60006001600160a01b038516620000fc5760405162461bcd60e51b8152602060048201526030602482015260008051602062001bc783398151915260448201526f722c20207a65726f206164647265737360801b60648201526084015b60405180910390fd5b600a546001600160a01b0316156200015e5760405162461bcd60e51b815260206004820152602f602482015260008051602062001bc783398151915260448201526e722c207a65726f206164647265737360881b6064820152608401620000f3565b6001600160a01b038216620001de576040805162461bcd60e51b81526020600482015260248101919091527f546f7572546f6b656e54656d706c6174653a20496e76616c696420636f6d6d7560448201527f6e6974792066656520636f6c6c6563746f722c207a65726f20616464726573736064820152608401620000f3565b83620002395760405162461bcd60e51b8152602060048201526024808201527f546f7572546f6b656e54656d706c6174653a20496e76616c6964206361702076604482015263616c756560e01b6064820152608401620000f3565b60088490558651620002539060059060208a0190620002cc565b50825162000269906007906020860190620002cc565b5085516200027f906006906020890190620002cc565b5050600a80546001600160a01b039586166001600160a01b0319909116179055600980546001600160a81b0319169190941617600160a01b9081179384905590920460ff16949350505050565b828054620002da9062000505565b90600052602060002090601f016020900481019282620002fe576000855562000349565b82601f106200031957805160ff191683800117855562000349565b8280016001018555821562000349579182015b82811115620003495782518255916020019190600101906200032c565b50620003579291506200035b565b5090565b5b808211156200035757600081556001016200035c565b80516001600160a01b03811681146200038a57600080fd5b919050565b600082601f830112620003a157600080fd5b81516001600160401b0380821115620003be57620003be62000542565b604051601f8301601f19908116603f01168101908282118183101715620003e957620003e962000542565b816040528381526020925086838588010111156200040657600080fd5b600091505b838210156200042a57858201830151818301840152908201906200040b565b838211156200043c5760008385830101525b9695505050505050565b60008060008060008060c087890312156200046057600080fd5b86516001600160401b03808211156200047857600080fd5b620004868a838b016200038f565b975060208901519150808211156200049d57600080fd5b620004ab8a838b016200038f565b9650620004bb60408a0162000372565b9550606089015194506080890151915080821115620004d957600080fd5b50620004e889828a016200038f565b925050620004f960a0880162000372565b90509295509295509295565b600181811c908216806200051a57607f821691505b602082108114156200053c57634e487b7160e01b600052602260045260246000fd5b50919050565b634e487b7160e01b600052604160045260246000fd5b61165f80620005686000396000f3fe608060405234801561001057600080fd5b506004361061013e5760003560e01c806306fdde03146101435780630754617214610161578063095ea7b31461017c57806318160ddd1461019f57806323b872dd146101b1578063294541c7146101c4578063313ce567146101cc57806334e73122146101db578063355274ea146101ee578063392e53cd146101f6578063395093511461020857806340c10f191461021b57806350d2fcc41461023057806370a0823114610243578063889f77111461026c5780638ca0c059146102745780639070d2f81461028757806395d89b411461029a578063a457c2d7146102a2578063a9059cbb146102b5578063aa271e1a146102c8578063ab63d2b2146102ea578063b2263a5d146101c4578063dd62ed3e146102fd578063eb40024b14610336578063ec342ad01461033e575b600080fd5b61014b61034d565b60405161015891906114d2565b60405180910390f35b600a546040516001600160a01b039091168152602001610158565b61018f61018a36600461130a565b6103df565b6040519015158152602001610158565b6002545b604051908152602001610158565b61018f6101bf3660046112ce565b6103f6565b6101a36104a5565b60405160128152602001610158565b6101a36101e936600461147b565b6104bc565b6008546101a3565b600954600160a01b900460ff1661018f565b61018f61021636600461130a565b6104fb565b61022e61022936600461130a565b610537565b005b61022e61023e366004611280565b6105d3565b6101a3610251366004611280565b6001600160a01b031660009081526020819052604090205490565b61014b610657565b61022e61028236600461137a565b610666565b61018f6102953660046113b5565b61072b565b61014b610861565b61018f6102b036600461130a565b610870565b61018f6102c336600461130a565b610909565b61018f6102d6366004611280565b600a546001600160a01b0390811691161490565b61022e6102f8366004611334565b610916565b6101a361030b36600461129b565b6001600160a01b03918216600090815260016020908152604080832093909416825291909152205490565b61022e610a62565b6101a3670de0b6b3a764000081565b60606005805461035c906115d8565b80601f0160208091040260200160405190810160405280929190818152602001828054610388906115d8565b80156103d55780601f106103aa576101008083540402835291602001916103d5565b820191906000526020600020905b8154815290600101906020018083116103b857829003601f168201915b5050505050905090565b60006103ec338484610b49565b5060015b92915050565b6000610403848484610c6d565b6001600160a01b03841660009081526001602090815260408083203384529091529020548281101561048d5760405162461bcd60e51b815260206004820152602860248201527f45524332303a207472616e7366657220616d6f756e74206578636565647320616044820152676c6c6f77616e636560c01b60648201526084015b60405180910390fd5b61049a8533858403610b49565b506001949350505050565b6104b96103e8670de0b6b3a7640000611580565b81565b6000826104cb575060006103f0565b816104d8575060006103f0565b6104f4670de0b6b3a76400006104ee8585610e2e565b90610e3a565b9392505050565b3360008181526001602090815260408083206001600160a01b038716845290915281205490916103ec918590610532908690611568565b610b49565b600a546001600160a01b031633146105615760405162461bcd60e51b815260040161048490611527565b6008546105778261057160025490565b90610e46565b11156105c55760405162461bcd60e51b815260206004820152601f60248201527f546f7572546f6b656e54656d706c6174653a20636170206578636565646564006044820152606401610484565b6105cf8282610e52565b5050565b600a546001600160a01b031633146105fd5760405162461bcd60e51b815260040161048490611527565b600b80546001600160a01b0319166001600160a01b0383169081179091556040517fa24c529cc8b2d85b7dfb2ed0b4d7e9a816546212138b5d223bee13481e21be6b9161064c9133919061149d565b60405180910390a150565b60606007805461035c906115d8565b81156106d4576106768383610909565b6106d45760405162461bcd60e51b815260206004820152602960248201527f546f7572546f6b656e54656d706c6174653a206661696c656420746f2066696e60448201526834b9b41037b93232b960b91b6064820152608401610484565b336001600160a01b0316836001600160a01b03167f46872661d5d7765097d3a97ca99b7cbfa68b54b6d51904168974901ee607a26d8685854260405161071d94939291906114b7565b60405180910390a350505050565b600954600090600160a01b900460ff16156107a65760405162461bcd60e51b815260206004820152603560248201527f546f7572546f6b656e54656d706c6174653a20746f6b656e20696e7374616e636044820152741948185b1c9958591e481a5b9a5d1a585b1a5e9959605a1b6064820152608401610484565b6108538a8a8080601f01602080910402602001604051908101604052809392919081815260200183838082843760009201919091525050604080516020601f8e018190048102820181019092528c815292508c91508b908190840183828082843760009201919091525050604080516020601f8b018190048102820181019092528981528c93508b9250908a908a90819084018382808284376000920191909152508a9250610f31915050565b9a9950505050505050505050565b60606006805461035c906115d8565b3360009081526001602090815260408083206001600160a01b0386168452909152812054828110156108f25760405162461bcd60e51b815260206004820152602560248201527f45524332303a2064656372656173656420616c6c6f77616e63652062656c6f77604482015264207a65726f60d81b6064820152608401610484565b6108ff3385858403610b49565b5060019392505050565b60006103ec338484610c6d565b670de0b6b3a764000083101561096a5760405162461bcd60e51b8152602060048201526019602482015278416d6f756e74206d757374206265206174206c65617374203160381b6044820152606401610484565b600080610985856101e96103e8670de0b6b3a7640000611580565b60095490915061099e906001600160a01b031682610909565b506001600160a01b038316156109d4576109c6856101e96103e8670de0b6b3a7640000611580565b91506109d28383610909565b505b60006109e08284610e46565b600a549091506109fd906001600160a01b03166102c38884611177565b50836001600160a01b0316336001600160a01b0316886001600160a01b03167fe1c4fa794edfa8f619b8257a077398950357b9c6398528f94480307352f9afcc89894289604051610a5194939291906114b7565b60405180910390a450505050505050565b600b546001600160a01b03163314610ad75760405162461bcd60e51b815260206004820152603260248201527f546f7572546f6b656e54656d706c6174653a20696e76616c69642070726f706f604482015271736564206d696e746572206164647265737360701b6064820152608401610484565b600a54600b546040517f96ab0400119a548d3cc4c74e857d0d9c427fe9df20d3d0d99af10cc292e6c88692610b1a926001600160a01b039182169291169061149d565b60405180910390a1600b8054600a80546001600160a01b03199081166001600160a01b03841617909155169055565b6001600160a01b038316610bab5760405162461bcd60e51b8152602060048201526024808201527f45524332303a20617070726f76652066726f6d20746865207a65726f206164646044820152637265737360e01b6064820152608401610484565b6001600160a01b038216610c0c5760405162461bcd60e51b815260206004820152602260248201527f45524332303a20617070726f766520746f20746865207a65726f206164647265604482015261737360f01b6064820152608401610484565b6001600160a01b0383811660008181526001602090815260408083209487168084529482529182902085905590518481527f8c5be1e5ebec7d5bd14f71427d1e84f3dd0314c0f7b2291e5b200ac8c7c3b925910160405180910390a3505050565b6001600160a01b038316610cd15760405162461bcd60e51b815260206004820152602560248201527f45524332303a207472616e736665722066726f6d20746865207a65726f206164604482015264647265737360d81b6064820152608401610484565b6001600160a01b038216610d335760405162461bcd60e51b815260206004820152602360248201527f45524332303a207472616e7366657220746f20746865207a65726f206164647260448201526265737360e81b6064820152608401610484565b6001600160a01b03831660009081526020819052604090205481811015610dab5760405162461bcd60e51b815260206004820152602660248201527f45524332303a207472616e7366657220616d6f756e7420657863656564732062604482015265616c616e636560d01b6064820152608401610484565b6001600160a01b03808516600090815260208190526040808220858503905591851681529081208054849290610de2908490611568565b92505081905550826001600160a01b0316846001600160a01b03167fddf252ad1be2c89b69c2b068fc378daa952ba7f163c4a11628f55a4df523b3ef8460405161071d91815260200190565b60006104f482846115a2565b60006104f48284611580565b60006104f48284611568565b6001600160a01b038216610ea85760405162461bcd60e51b815260206004820152601f60248201527f45524332303a206d696e7420746f20746865207a65726f2061646472657373006044820152606401610484565b8060026000828254610eba9190611568565b90915550506001600160a01b03821660009081526020819052604081208054839290610ee7908490611568565b90915550506040518181526001600160a01b038316906000907fddf252ad1be2c89b69c2b068fc378daa952ba7f163c4a11628f55a4df523b3ef9060200160405180910390a35050565b60006001600160a01b038516610fa25760405162461bcd60e51b815260206004820152603060248201527f546f7572546f6b656e54656d706c6174653a20496e76616c6964206d696e746560448201526f722c20207a65726f206164647265737360801b6064820152608401610484565b600a546001600160a01b0316156110135760405162461bcd60e51b815260206004820152602f60248201527f546f7572546f6b656e54656d706c6174653a20496e76616c6964206d696e746560448201526e722c207a65726f206164647265737360881b6064820152608401610484565b6001600160a01b038216611091576040805162461bcd60e51b81526020600482015260248101919091527f546f7572546f6b656e54656d706c6174653a20496e76616c696420636f6d6d7560448201527f6e6974792066656520636f6c6c6563746f722c207a65726f20616464726573736064820152608401610484565b836110ea5760405162461bcd60e51b8152602060048201526024808201527f546f7572546f6b656e54656d706c6174653a20496e76616c6964206361702076604482015263616c756560e01b6064820152608401610484565b600884905586516111029060059060208a0190611183565b508251611116906007906020860190611183565b50855161112a906006906020890190611183565b5050600a80546001600160a01b039586166001600160a01b0319909116179055600980546001600160a81b0319169190941617600160a01b9081179384905590920460ff16949350505050565b60006104f482846115c1565b82805461118f906115d8565b90600052602060002090601f0160209004810192826111b157600085556111f7565b82601f106111ca57805160ff19168380011785556111f7565b828001600101855582156111f7579182015b828111156111f75782518255916020019190600101906111dc565b50611203929150611207565b5090565b5b808211156112035760008155600101611208565b80356001600160a01b038116811461123357600080fd5b919050565b60008083601f84011261124a57600080fd5b5081356001600160401b0381111561126157600080fd5b60208301915083602082850101111561127957600080fd5b9250929050565b60006020828403121561129257600080fd5b6104f48261121c565b600080604083850312156112ae57600080fd5b6112b78361121c565b91506112c56020840161121c565b90509250929050565b6000806000606084860312156112e357600080fd5b6112ec8461121c565b92506112fa6020850161121c565b9150604084013590509250925092565b6000806040838503121561131d57600080fd5b6113268361121c565b946020939093013593505050565b6000806000806080858703121561134a57600080fd5b6113538561121c565b9350602085013592506040850135915061136f6060860161121c565b905092959194509250565b6000806000806080858703121561139057600080fd5b843593506113a06020860161121c565b93969395505050506040820135916060013590565b600080600080600080600080600060c08a8c0312156113d357600080fd5b89356001600160401b03808211156113ea57600080fd5b6113f68d838e01611238565b909b50995060208c013591508082111561140f57600080fd5b61141b8d838e01611238565b909950975087915061142f60408d0161121c565b965060608c0135955060808c013591508082111561144c57600080fd5b506114598c828d01611238565b909450925061146c905060a08b0161121c565b90509295985092959850929598565b6000806040838503121561148e57600080fd5b50508035926020909101359150565b6001600160a01b0392831681529116602082015260400190565b93845260208401929092526040830152606082015260800190565b600060208083528351808285015260005b818110156114ff578581018301518582016040015282016114e3565b81811115611511576000604083870101525b50601f01601f1916929092016040019392505050565b60208082526021908201527f546f7572546f6b656e54656d706c6174653a20696e76616c6964206d696e74656040820152603960f91b606082015260800190565b6000821982111561157b5761157b611613565b500190565b60008261159d57634e487b7160e01b600052601260045260246000fd5b500490565b60008160001904831182151516156115bc576115bc611613565b500290565b6000828210156115d3576115d3611613565b500390565b600181811c908216806115ec57607f821691505b6020821081141561160d57634e487b7160e01b600052602260045260246000fd5b50919050565b634e487b7160e01b600052601160045260246000fdfea2646970667358221220316376cd193b430558bc4bc7432dd69226a16807cceb678cc2973b7d9d3dfdae64736f6c63430008060033546f7572546f6b656e54656d706c6174653a20496e76616c6964206d696e7465",
  "immutableReferences": {},
  "source": "pragma solidity 0.8.6;\r\n// Based on Copyright BigchainDB GmbH and Ocean Protocol contributors\r\n// SPDX-License-Identifier: (Apache-2.0 AND CC-BY-4.0)\r\n// Code is Apache-2.0 and docs are CC-BY-4.0\r\n\r\n// import './ocean_interfaces/IERC20Template.sol';\r\nimport \"@openzeppelin/contracts/token/ERC20/ERC20.sol\";\r\nimport \"@openzeppelin/contracts/utils/math/SafeMath.sol\";\r\nimport './ocean_interfaces/ITourTokenAdditional.sol';\r\n\r\n\r\n/**\r\n* @title TourTokenTemplate\r\n*  \r\n* @dev TourTokenTemplate is an ERC20 compliant token template\r\n*      Used by the factory contract as a bytecode reference to \r\n*      deploy new TourTokens.\r\n*/\r\ncontract TourTokenTemplate is ITourTokenAdditional, ERC20 {\r\n    using SafeMath for uint256;\r\n\r\n    string private _name; // Need these, because of multiple initializations\r\n    string private _symbol;\r\n\r\n    string  private _tourID;\r\n    uint256 private _cap;\r\n    address private _communityFeeCollector;\r\n    bool    private initialized = false;\r\n    address private _minter;\r\n    address private _proposedMinter;\r\n    uint256 public constant BASE = 10**18;\r\n    uint256 public constant BASE_COMMUNITY_FEE_PERCENTAGE = BASE / 1000;\r\n    uint256 public constant BASE_MARKET_FEE_PERCENTAGE = BASE / 1000;\r\n\r\n    event OrderStarted(\r\n            address indexed consumer,\r\n            address indexed payer,\r\n            uint256 amount, \r\n            uint256 serviceId, \r\n            uint256 timestamp,\r\n            address indexed mrktFeeCollector,\r\n            uint256 marketFee\r\n    );\r\n\r\n    event OrderFinished(\r\n            bytes32 orderTxId, \r\n            address indexed consumer,\r\n            uint256 amount, \r\n            uint256 serviceId, \r\n            address indexed provider,\r\n            uint256 timestamp\r\n    );\r\n\r\n    event MinterProposed(\r\n        address currentMinter,\r\n        address newMinter\r\n    );\r\n\r\n    event MinterApproved(\r\n        address currentMinter,\r\n        address newMinter\r\n    );\r\n\r\n    modifier onlyNotInitialized() {\r\n        require(\r\n            !initialized,\r\n            'TourTokenTemplate: token instance already initialized'\r\n        );\r\n        _;\r\n    }\r\n    \r\n    modifier onlyMinter() {\r\n        require(\r\n            msg.sender == _minter,\r\n            'TourTokenTemplate: invalid minter' \r\n        );\r\n        _;\r\n    }\r\n    \r\n    /**\r\n     * @dev constructor\r\n     *      Called prior contract deployment\r\n     * @param name_ refers to a template TourToken name\r\n     * @param symbol_ refers to a template TourToken symbol\r\n     * @param minterAddress_ refers to an address that has minter role\r\n     * @param cap_ the total ERC20 cap\r\n     * @param tourID_ data string refering to the ID of the Tour\r\n     * @param feeCollector_ it is the community fee collector address\r\n     */\r\n    constructor(\r\n        string memory name_,\r\n        string memory symbol_,\r\n        address minterAddress_,\r\n        uint256 cap_,\r\n        string memory tourID_,\r\n        address feeCollector_\r\n    ) ERC20(name_, symbol_)\r\n    {\r\n        _initialize(\r\n            name_,\r\n            symbol_,\r\n            minterAddress_,\r\n            cap_,\r\n            tourID_,\r\n            feeCollector_\r\n        );\r\n    }\r\n    \r\n    /**\r\n     * @dev Returns the name of the token.\r\n     */\r\n    function name() public view override returns (string memory) {\r\n        return _name;\r\n    }\r\n\r\n    /**\r\n     * @dev Returns the symbol of the token, usually a shorter version of the\r\n     * name.\r\n     */\r\n    function symbol() public view override returns (string memory) {\r\n        return _symbol;\r\n    }\r\n    \r\n    /**\r\n     * @dev initialize\r\n     *      Called prior contract initialization (e.g creating new TourToken instance)\r\n     *      Calls private _initialize function. Only if contract is not initialized.\r\n     * @param name_ refers to a new TourToken name\r\n     * @param symbol_ refers to a nea TourToken symbol\r\n     * @param minterAddress_ refers to an address that has minter rights\r\n     * @param cap_ the total ERC20 cap\r\n     * @param tourID_ data string refering to the resolver for the metadata\r\n     * @param feeCollector_ it is the community fee collector address\r\n     */\r\n    function initialize(\r\n        string calldata name_,\r\n        string calldata symbol_,\r\n        address minterAddress_,\r\n        uint256 cap_,\r\n        string calldata tourID_,\r\n        address feeCollector_\r\n    ) \r\n        external\r\n        override\r\n        onlyNotInitialized\r\n        returns(bool)\r\n    {\r\n        return _initialize(\r\n            name_,\r\n            symbol_,\r\n            minterAddress_,\r\n            cap_,\r\n            tourID_,\r\n            feeCollector_\r\n        );\r\n    }\r\n\r\n    /**\r\n     * @dev _initialize\r\n     *      Private function called on contract initialization.\r\n     * @param name_ refers to a new TourToken name\r\n     * @param symbol_ refers to a nea TourToken symbol\r\n     * @param minterAddress_ refers to an address that has minter rights\r\n     * @param cap_ the total ERC20 cap\r\n     * @param tourID_ data string refering to the resolver for the metadata\r\n     * @param feeCollector_ it is the community fee collector address\r\n     */\r\n    function _initialize(\r\n        string memory name_,\r\n        string memory symbol_,\r\n        address minterAddress_,\r\n        uint256 cap_,\r\n        string memory tourID_,\r\n        address feeCollector_\r\n    )\r\n        private\r\n        returns(bool)\r\n    {\r\n        require(\r\n            minterAddress_ != address(0), \r\n            'TourTokenTemplate: Invalid minter,  zero address'\r\n        );\r\n\r\n        require(\r\n            _minter == address(0), \r\n            'TourTokenTemplate: Invalid minter, zero address'\r\n        );\r\n\r\n        require(\r\n            feeCollector_ != address(0),\r\n            'TourTokenTemplate: Invalid community fee collector, zero address'\r\n        );\r\n\r\n        require(\r\n            cap_ != 0,\r\n            'TourTokenTemplate: Invalid cap value'\r\n        );\r\n        _cap = cap_;\r\n        _name = name_;\r\n        _tourID = tourID_;\r\n        _symbol = symbol_;\r\n        _minter = minterAddress_;\r\n        _communityFeeCollector = feeCollector_;\r\n        initialized = true;\r\n        return initialized;\r\n    }\r\n\r\n    /**\r\n     * @dev mint\r\n     *      Only the minter address can call it.\r\n     *      msg.value should be higher than zero and gt or eq minting fee\r\n     * @param account refers to an address that token is going to be minted to.\r\n     * @param value refers to amount of tokens that is going to be minted.\r\n     */\r\n    function mint(\r\n        address account,\r\n        uint256 value\r\n    ) \r\n        external  \r\n        override\r\n        onlyMinter \r\n    {\r\n        require(\r\n            totalSupply().add(value) <= _cap, \r\n            'TourTokenTemplate: cap exceeded'\r\n        );\r\n        _mint(account, value);\r\n    }\r\n\r\n    /**\r\n     * @dev startOrder\r\n     *      called by payer or consumer prior ordering a service consume on a marketplace.\r\n     * @param consumer is the consumer address (payer could be different address)\r\n     * @param amount refers to amount of tokens that is going to be transfered.\r\n     * @param serviceId service index in the metadata\r\n     * @param mrktFeeCollector marketplace fee collector\r\n     */\r\n    function startOrder(\r\n        address consumer,\r\n        uint256 amount,\r\n        uint256 serviceId,\r\n        address mrktFeeCollector\r\n    )\r\n        external\r\n    {\r\n        require(amount >= BASE, \"Amount must be at least 1\");\r\n        uint256 marketFee = 0;\r\n        uint256 communityFee = calculateFee(\r\n            amount, \r\n            BASE_COMMUNITY_FEE_PERCENTAGE\r\n        );\r\n        transfer(_communityFeeCollector, communityFee);\r\n        if(mrktFeeCollector != address(0)){\r\n            marketFee = calculateFee(\r\n                amount, \r\n                BASE_MARKET_FEE_PERCENTAGE\r\n            );\r\n            transfer(mrktFeeCollector, marketFee);\r\n        }\r\n        uint256 totalFee = communityFee.add(marketFee);\r\n        transfer(_minter, amount.sub(totalFee));\r\n        emit OrderStarted(\r\n            consumer,\r\n            msg.sender,\r\n            amount,\r\n            serviceId,\r\n            /* solium-disable-next-line */\r\n            block.timestamp,\r\n            mrktFeeCollector,\r\n            marketFee\r\n        );\r\n    }\r\n\r\n    /**\r\n     * @dev finishOrder\r\n     *      called by provider prior completing service delivery only\r\n     *      if there is a partial or full refund.\r\n     * @param orderTxId refers to the transaction Id  of startOrder acts \r\n     *                  as a payment reference.\r\n     * @param consumer refers to an address that has consumed that service.\r\n     * @param amount refers to amount of tokens that is going to be transfered.\r\n     * @param serviceId service index in the metadata.\r\n     */\r\n    function finishOrder(\r\n        bytes32 orderTxId, \r\n        address consumer, \r\n        uint256 amount,\r\n        uint256 serviceId\r\n    )\r\n        external\r\n    {\r\n        if ( amount != 0 )  \r\n            require(\r\n                transfer(consumer, amount),\r\n                'TourTokenTemplate: failed to finish order'\r\n            );\r\n        \r\n        emit OrderFinished(\r\n            orderTxId, \r\n            consumer, \r\n            amount, \r\n            serviceId, \r\n            msg.sender,\r\n            /* solium-disable-next-line */\r\n            block.timestamp\r\n        );\r\n    }\r\n\r\n    /**\r\n     * @dev proposeMinter\r\n     *      It proposes a new token minter address.\r\n     *      Only the current minter can call it.\r\n     * @param newMinter refers to a new token minter address.\r\n     */\r\n    function proposeMinter(address newMinter) \r\n        external \r\n        override\r\n        onlyMinter \r\n    {\r\n        _proposedMinter = newMinter;\r\n        emit MinterProposed(\r\n            msg.sender,\r\n            _proposedMinter\r\n        );\r\n    }\r\n\r\n    /**\r\n     * @dev approveMinter\r\n     *      It approves a new token minter address.\r\n     *      Only the current minter can call it.\r\n     */\r\n    function approveMinter()\r\n        external\r\n        override\r\n    {\r\n        require(\r\n            msg.sender == _proposedMinter,\r\n            'TourTokenTemplate: invalid proposed minter address'\r\n        );\r\n        emit MinterApproved(\r\n            _minter,\r\n            _proposedMinter\r\n        );\r\n        _minter = _proposedMinter;\r\n        _proposedMinter = address(0);\r\n    }\r\n\r\n    /**\r\n     * @dev blob\r\n     *      It returns the blob (e.g https://123.com).\r\n     * @return TourToken blob.\r\n     */\r\n    function tourID() external view returns(string memory) {\r\n        return _tourID;\r\n    }\r\n\r\n    /**\r\n     * @dev cap\r\n     *      it returns the capital.\r\n     * @return TourToken cap.\r\n     */\r\n    function cap() external override view returns (uint256) {\r\n        return _cap;\r\n    }\r\n\r\n    /**\r\n     * @dev isMinter\r\n     *      It takes the address and checks whether it has a minter role.\r\n     * @param account refers to the address.\r\n     * @return true if account has a minter role.\r\n     */\r\n    function isMinter(address account) external override view returns(bool) {\r\n        return (_minter == account);\r\n    } \r\n\r\n    /**\r\n     * @dev minter\r\n     * @return minter's address.\r\n     */\r\n    function minter()\r\n        external\r\n        override\r\n        view \r\n        returns(address)\r\n    {\r\n        return _minter;\r\n    }\r\n\r\n    /**\r\n     * @dev isInitialized\r\n     *      It checks whether the contract is initialized.\r\n     * @return true if the contract is initialized.\r\n     */ \r\n    function isInitialized() external override view returns(bool) {\r\n        return initialized;\r\n    }\r\n\r\n    /**\r\n     * @dev calculateFee\r\n     *      giving a fee percentage, and amount it calculates the actual fee\r\n     * @param amount the amount of token\r\n     * @param feePercentage the fee percentage \r\n     * @return the token fee.\r\n     */ \r\n    function calculateFee(\r\n        uint256 amount,\r\n        uint256 feePercentage\r\n    )\r\n        public\r\n        pure\r\n        returns(uint256)\r\n    {\r\n        if(amount == 0) return 0;\r\n        if(feePercentage == 0) return 0;\r\n        return amount.mul(feePercentage).div(BASE);\r\n    }\r\n}\r\n",
  "sourcePath": "C:\\wetzel\\local\\cryp-tour\\contracts\\contracts\\TourTokenTemplate.sol",
  "compiler": {
    "name": "solc",
    "version": "0.8.6+commit.11564f7e.Emscripten.clang"
  },
  "schemaVersion": "3.4.3",
  "updatedAt": "2022-05-19T07:34:46.164Z",
  "networkType": "ethereum",
  "devdoc": {
    "details": "TourTokenTemplate is an ERC20 compliant token template      Used by the factory contract as a bytecode reference to       deploy new TourTokens.",
    "kind": "dev",
    "methods": {
      "allowance(address,address)": {
        "details": "See {IERC20-allowance}."
      },
      "approve(address,uint256)": {
        "details": "See {IERC20-approve}. Requirements: - `spender` cannot be the zero address."
      },
      "approveMinter()": {
        "details": "approveMinter      It approves a new token minter address.      Only the current minter can call it."
      },
      "balanceOf(address)": {
        "details": "See {IERC20-balanceOf}."
      },
      "calculateFee(uint256,uint256)": {
        "details": "calculateFee      giving a fee percentage, and amount it calculates the actual fee",
        "params": {
          "amount": "the amount of token",
          "feePercentage": "the fee percentage "
        },
        "returns": {
          "_0": "the token fee."
        }
      },
      "cap()": {
        "details": "cap      it returns the capital.",
        "returns": {
          "_0": "TourToken cap."
        }
      },
      "constructor": {
        "details": "constructor      Called prior contract deployment",
        "params": {
          "cap_": "the total ERC20 cap",
          "feeCollector_": "it is the community fee collector address",
          "minterAddress_": "refers to an address that has minter role",
          "name_": "refers to a template TourToken name",
          "symbol_": "refers to a template TourToken symbol",
          "tourID_": "data string refering to the ID of the Tour"
        }
      },
      "decimals()": {
        "details": "Returns the number of decimals used to get its user representation. For example, if `decimals` equals `2`, a balance of `505` tokens should be displayed to a user as `5.05` (`505 / 10 ** 2`). Tokens usually opt for a value of 18, imitating the relationship between Ether and Wei. This is the value {ERC20} uses, unless this function is overridden; NOTE: This information is only used for _display_ purposes: it in no way affects any of the arithmetic of the contract, including {IERC20-balanceOf} and {IERC20-transfer}."
      },
      "decreaseAllowance(address,uint256)": {
        "details": "Atomically decreases the allowance granted to `spender` by the caller. This is an alternative to {approve} that can be used as a mitigation for problems described in {IERC20-approve}. Emits an {Approval} event indicating the updated allowance. Requirements: - `spender` cannot be the zero address. - `spender` must have allowance for the caller of at least `subtractedValue`."
      },
      "finishOrder(bytes32,address,uint256,uint256)": {
        "details": "finishOrder      called by provider prior completing service delivery only      if there is a partial or full refund.",
        "params": {
          "amount": "refers to amount of tokens that is going to be transfered.",
          "consumer": "refers to an address that has consumed that service.",
          "orderTxId": "refers to the transaction Id  of startOrder acts                   as a payment reference.",
          "serviceId": "service index in the metadata."
        }
      },
      "increaseAllowance(address,uint256)": {
        "details": "Atomically increases the allowance granted to `spender` by the caller. This is an alternative to {approve} that can be used as a mitigation for problems described in {IERC20-approve}. Emits an {Approval} event indicating the updated allowance. Requirements: - `spender` cannot be the zero address."
      },
      "initialize(string,string,address,uint256,string,address)": {
        "details": "initialize      Called prior contract initialization (e.g creating new TourToken instance)      Calls private _initialize function. Only if contract is not initialized.",
        "params": {
          "cap_": "the total ERC20 cap",
          "feeCollector_": "it is the community fee collector address",
          "minterAddress_": "refers to an address that has minter rights",
          "name_": "refers to a new TourToken name",
          "symbol_": "refers to a nea TourToken symbol",
          "tourID_": "data string refering to the resolver for the metadata"
        }
      },
      "isInitialized()": {
        "details": "isInitialized      It checks whether the contract is initialized.",
        "returns": {
          "_0": "true if the contract is initialized."
        }
      },
      "isMinter(address)": {
        "details": "isMinter      It takes the address and checks whether it has a minter role.",
        "params": {
          "account": "refers to the address."
        },
        "returns": {
          "_0": "true if account has a minter role."
        }
      },
      "mint(address,uint256)": {
        "details": "mint      Only the minter address can call it.      msg.value should be higher than zero and gt or eq minting fee",
        "params": {
          "account": "refers to an address that token is going to be minted to.",
          "value": "refers to amount of tokens that is going to be minted."
        }
      },
      "minter()": {
        "details": "minter",
        "returns": {
          "_0": "minter's address."
        }
      },
      "name()": {
        "details": "Returns the name of the token."
      },
      "proposeMinter(address)": {
        "details": "proposeMinter      It proposes a new token minter address.      Only the current minter can call it.",
        "params": {
          "newMinter": "refers to a new token minter address."
        }
      },
      "startOrder(address,uint256,uint256,address)": {
        "details": "startOrder      called by payer or consumer prior ordering a service consume on a marketplace.",
        "params": {
          "amount": "refers to amount of tokens that is going to be transfered.",
          "consumer": "is the consumer address (payer could be different address)",
          "mrktFeeCollector": "marketplace fee collector",
          "serviceId": "service index in the metadata"
        }
      },
      "symbol()": {
        "details": "Returns the symbol of the token, usually a shorter version of the name."
      },
      "totalSupply()": {
        "details": "See {IERC20-totalSupply}."
      },
      "tourID()": {
        "details": "blob      It returns the blob (e.g https://123.com).",
        "returns": {
          "_0": "TourToken blob."
        }
      },
      "transfer(address,uint256)": {
        "details": "See {IERC20-transfer}. Requirements: - `recipient` cannot be the zero address. - the caller must have a balance of at least `amount`."
      },
      "transferFrom(address,address,uint256)": {
        "details": "See {IERC20-transferFrom}. Emits an {Approval} event indicating the updated allowance. This is not required by the EIP. See the note at the beginning of {ERC20}. Requirements: - `sender` and `recipient` cannot be the zero address. - `sender` must have a balance of at least `amount`. - the caller must have allowance for ``sender``'s tokens of at least `amount`."
      }
    },
    "title": "TourTokenTemplate  ",
    "version": 1
  },
  "userdoc": {
    "kind": "user",
    "methods": {},
    "version": 1
  }
}